{
  "_format": "hh3-artifact-1",
  "contractName": "PrivateAdder",
  "sourceName": "contracts/examples/PrivateAdder.sol",
  "abi": [
    {
      "inputs": [],
      "stateMutability": "nonpayable",
      "type": "constructor"
    },
    {
      "inputs": [
        {
          "internalType": "address",
          "name": "caller",
          "type": "address"
        }
      ],
      "name": "OnlyInbox",
      "type": "error"
    },
    {
      "inputs": [
        {
          "internalType": "address",
          "name": "owner",
          "type": "address"
        }
      ],
      "name": "OwnableInvalidOwner",
      "type": "error"
    },
    {
      "inputs": [
        {
          "internalType": "address",
          "name": "account",
          "type": "address"
        }
      ],
      "name": "OwnableUnauthorizedAccount",
      "type": "error"
    },
    {
      "anonymous": false,
      "inputs": [
        {
          "indexed": true,
          "internalType": "bytes32",
          "name": "requestId",
          "type": "bytes32"
        }
      ],
      "name": "AddCompleted",
      "type": "event"
    },
    {
      "anonymous": false,
      "inputs": [
        {
          "indexed": true,
          "internalType": "bytes32",
          "name": "requestId",
          "type": "bytes32"
        },
        {
          "indexed": true,
          "internalType": "address",
          "name": "caller",
          "type": "address"
        }
      ],
      "name": "AddRequested",
      "type": "event"
    },
    {
      "anonymous": false,
      "inputs": [
        {
          "indexed": false,
          "internalType": "bytes32",
          "name": "requestId",
          "type": "bytes32"
        },
        {
          "indexed": false,
          "internalType": "uint256",
          "name": "code",
          "type": "uint256"
        },
        {
          "indexed": false,
          "internalType": "string",
          "name": "message",
          "type": "string"
        }
      ],
      "name": "ErrorRemoteCall",
      "type": "event"
    },
    {
      "anonymous": false,
      "inputs": [
        {
          "indexed": true,
          "internalType": "address",
          "name": "previousOwner",
          "type": "address"
        },
        {
          "indexed": true,
          "internalType": "address",
          "name": "newOwner",
          "type": "address"
        }
      ],
      "name": "OwnershipTransferred",
      "type": "event"
    },
    {
      "inputs": [
        {
          "components": [
            {
              "internalType": "ctUint64",
              "name": "ciphertext",
              "type": "uint256"
            },
            {
              "internalType": "bytes",
              "name": "signature",
              "type": "bytes"
            }
          ],
          "internalType": "struct itUint64",
          "name": "a",
          "type": "tuple"
        },
        {
          "components": [
            {
              "internalType": "ctUint64",
              "name": "ciphertext",
              "type": "uint256"
            },
            {
              "internalType": "bytes",
              "name": "signature",
              "type": "bytes"
            }
          ],
          "internalType": "struct itUint64",
          "name": "b",
          "type": "tuple"
        },
        {
          "internalType": "uint256",
          "name": "callbackFeeLocalWei",
          "type": "uint256"
        }
      ],
      "name": "add",
      "outputs": [
        {
          "internalType": "bytes32",
          "name": "requestId",
          "type": "bytes32"
        }
      ],
      "stateMutability": "payable",
      "type": "function"
    },
    {
      "inputs": [
        {
          "internalType": "bytes",
          "name": "data",
          "type": "bytes"
        }
      ],
      "name": "addCallback",
      "outputs": [],
      "stateMutability": "nonpayable",
      "type": "function"
    },
    {
      "inputs": [
        {
          "internalType": "address",
          "name": "inbox_",
          "type": "address"
        },
        {
          "internalType": "address",
          "name": "mpcExecutor_",
          "type": "address"
        },
        {
          "internalType": "uint256",
          "name": "cotiChainId_",
          "type": "uint256"
        }
      ],
      "name": "configure",
      "outputs": [],
      "stateMutability": "nonpayable",
      "type": "function"
    },
    {
      "inputs": [],
      "name": "inbox",
      "outputs": [
        {
          "internalType": "contract IInbox",
          "name": "",
          "type": "address"
        }
      ],
      "stateMutability": "view",
      "type": "function"
    },
    {
      "inputs": [
        {
          "internalType": "bytes32",
          "name": "requestId",
          "type": "bytes32"
        }
      ],
      "name": "onDefaultMpcError",
      "outputs": [],
      "stateMutability": "nonpayable",
      "type": "function"
    },
    {
      "inputs": [],
      "name": "owner",
      "outputs": [
        {
          "internalType": "address",
          "name": "",
          "type": "address"
        }
      ],
      "stateMutability": "view",
      "type": "function"
    },
    {
      "inputs": [],
      "name": "renounceOwnership",
      "outputs": [],
      "stateMutability": "nonpayable",
      "type": "function"
    },
    {
      "inputs": [
        {
          "internalType": "bytes32",
          "name": "",
          "type": "bytes32"
        }
      ],
      "name": "statusByRequest",
      "outputs": [
        {
          "internalType": "enum PrivateAdder.RequestStatus",
          "name": "",
          "type": "uint8"
        }
      ],
      "stateMutability": "view",
      "type": "function"
    },
    {
      "inputs": [
        {
          "internalType": "bytes32",
          "name": "",
          "type": "bytes32"
        }
      ],
      "name": "sumByRequest",
      "outputs": [
        {
          "internalType": "ctUint64",
          "name": "",
          "type": "uint256"
        }
      ],
      "stateMutability": "view",
      "type": "function"
    },
    {
      "inputs": [
        {
          "internalType": "address",
          "name": "newOwner",
          "type": "address"
        }
      ],
      "name": "transferOwnership",
      "outputs": [],
      "stateMutability": "nonpayable",
      "type": "function"
    },
    {
      "stateMutability": "payable",
      "type": "receive"
    }
  ],
  "bytecode": "0x6080604052600280546001600160a01b031916905562282b3460035534801561002757600080fd5b503380808061005057604051631e4fbdf760e01b81526000600482015260240160405180910390fd5b610059816100d3565b50505061007f73fa158f9e49c8bb77f971c3630ebcd23a8a88d14e61012560201b60201c565b600280546001600160a01b031990811673c76aae4f3810fbbd5d96b92defebe0034405ad9c17909155626c11a06003556000805490911673fa158f9e49c8bb77f971c3630ebcd23a8a88d14e179055610147565b600180546001600160a01b038381166001600160a01b0319831681179093556040519116919082907f8be0079c531659141344cd1fd0a4f28419497f9722a3daafe3b4186f6b6457e090600090a35050565b600080546001600160a01b0319166001600160a01b0392909216919091179055565b611242806101566000396000f3fe6080604052600436106100955760003560e01c8063c5632d6a11610059578063c5632d6a1461014f578063cad9e7b31461018c578063f2fde38b146101c7578063f6be9575146101e7578063fb0e722b146101fa57600080fd5b80636e1eb3c5146100a1578063715018a6146100c357806378e6811d146100d85780638da5cb5b146100f8578063c31614a41461012f57600080fd5b3661009c57005b600080fd5b3480156100ad57600080fd5b506100c16100bc366004610d78565b61021a565b005b3480156100cf57600080fd5b506100c16103af565b3480156100e457600080fd5b506100c16100f3366004610dd1565b6103c3565b34801561010457600080fd5b506001546001600160a01b03165b6040516001600160a01b0390911681526020015b60405180910390f35b34801561013b57600080fd5b506100c161014a366004610e0e565b61041b565b34801561015b57600080fd5b5061017f61016a366004610e0e565b60056020526000908152604090205460ff1681565b6040516101269190610e3d565b34801561019857600080fd5b506101b96101a7366004610e0e565b60046020526000908152604090205481565b604051908152602001610126565b3480156101d357600080fd5b506100c16101e2366004610e65565b6104fe565b6101b96101f5366004610e98565b61053c565b34801561020657600080fd5b50600054610112906001600160a01b031681565b6000546001600160a01b0316331461024c5760405163625bb43760e11b81523360048201526024015b60405180910390fd5b60008060009054906101000a90046001600160a01b03166001600160a01b031663decc59026040518163ffffffff1660e01b8152600401602060405180830381865afa1580156102a0573d6000803e3d6000fd5b505050506040513d601f19601f820116820180604052508101906102c49190610f0b565b9050806103435760008054906101000a90046001600160a01b03166001600160a01b03166359fa35c56040518163ffffffff1660e01b8152600401602060405180830381865afa15801561031c573d6000803e3d6000fd5b505050506040513d601f19601f820116820180604052508101906103409190610f0b565b90505b6000828060200190518101906103599190610f0b565b60008381526004602090815260408083208490556005909152808220805460ff191660021790555191925083917f15545c2b1d6b095e7ebd7319d2609af03949b85634df29d60c3055021836ae189190a2505050565b6103b76105b7565b6103c160006105e4565b565b6103cb6105b7565b6001600160a01b038316156103f657600080546001600160a01b0319166001600160a01b0385161790555b600280546001600160a01b0319166001600160a01b0384161790556003819055505050565b6000546001600160a01b031633146104485760405163625bb43760e11b8152336004820152602401610243565b60008054604051633d5c08e760e01b81526004810184905282916001600160a01b031690633d5c08e790602401600060405180830381865afa158015610492573d6000803e3d6000fd5b505050506040513d6000823e601f3d908101601f191682016040526104ba9190810190610f48565b915091507f619a7489bf8601fb5b4d4baa3ac966cc83cbb97ea0646e8cec620a75fdde73c48383836040516104f193929190610ff8565b60405180910390a1505050565b6105066105b7565b6001600160a01b03811661053057604051631e4fbdf760e01b815260006004820152602401610243565b610539816105e4565b50565b600061056b61054a85611017565b61055385611017565b33636e1eb3c560e01b6330c5852960e21b3488610636565b600081815260056020526040808220805460ff1916600117905551919250339183917f79a74d0a3c1adb2f8fb751487289c0a0b6e862ab36896a5d0aa1139c7e75ce3991a39392505050565b6001546001600160a01b031633146103c15760405163118cdaa760e01b8152336004820152602401610243565b600180546001600160a01b038381166001600160a01b0319831681179093556040519116919082907f8be0079c531659141344cd1fd0a4f28419497f9722a3daafe3b4186f6b6457e090600090a35050565b600061064f63210d1ab360e01b8989898989898961065b565b98975050505050505050565b600061067561066c8a8a8a8a610682565b868686866106be565b9998505050505050505050565b61068a610c53565b6106b56106b0836106aa866106a4896106a48c60036106ea565b90610824565b9061085e565b610896565b95945050505050565b6003546002546000916106e091859185916001600160a01b03168a8a8a6109d3565b9695505050505050565b6106f2610c85565b60408051610100810182526001600160e01b03198516608082019081528251600081526020810190935260a082019290925290819060c082018567ffffffffffffffff81111561074457610744610cb3565b60405190808252806020026020018201604052801561076d578160200160208202803683370190505b5081526020018567ffffffffffffffff81111561078c5761078c610cb3565b6040519080825280602002602001820160405280156107b5578160200160208202803683370190505b50905281526020018367ffffffffffffffff8111156107d6576107d6610cb3565b60405190808252806020026020018201604052801561080957816020015b60608152602001906001900390816107f45790505b50815260200160008152602001600081525090505b92915050565b61082c610c85565b61085783836040516020016108419190611085565b604051602081830303815290604052600e610b47565b9392505050565b610866610c85565b604080516001600160a01b0384166020820152610857918591016040516020818303038152906040526001610b47565b61089e610c53565b6000826040015167ffffffffffffffff8111156108bd576108bd610cb3565b6040519080825280601f01601f1916602001820160405280156108e7576020820181803683370190505b5090506000805b84606001518110156109c657600085602001518281518110610912576109126110aa565b60200260200101519050805160001b866000015160600151838151811061093b5761093b6110aa565b60200260200101818152505060005b81518110156109ae57818181518110610965576109656110aa565b01602001516001600160f81b0319168561097f83876110c0565b8151811061098f5761098f6110aa565b60200101906001600160f81b031916908160001a90535060010161094a565b5080516109bb90846110c0565b9250506001016108ee565b5050825160200152505190565b60006001871015610a265760405162461bcd60e51b815260206004820152601860248201527f506f644c69623a2063616c6c6261636b20666565206d696e00000000000000006044820152606401610243565b87871115610a765760405162461bcd60e51b815260206004820152601e60248201527f506f644c69623a2063616c6c6261636b206578636565647320746f74616c00006044820152606401610243565b87471015610aba5760405162461bcd60e51b8152602060048201526011602482015270506f644c69623a20696e626f782066656560781b6044820152606401610243565b60008054906101000a90046001600160a01b03166001600160a01b031663ba5814658988888888888e6040518863ffffffff1660e01b8152600401610b049695949392919061111d565b60206040518083038185885af1158015610b22573d6000803e3d6000fd5b50505050506040513d601f19601f8201168201806040525081019061064f9190610f0b565b610b4f610c85565b83516040015151606085015110610ba85760405162461bcd60e51b815260206004820152601a60248201527f4d7063416269436f6465633a20746f6f206d616e7920617267730000000000006044820152606401610243565b816011811115610bba57610bba610e27565b60ff1660c01b846000015160400151856060015181518110610bde57610bde6110aa565b6001600160c01b031990921660209283029190910182015284015160608501518151859291908110610c1257610c126110aa565b6020026020010181905250825184604001818151610c3091906110c0565b90525060608401805160019190610c489083906110c0565b905250929392505050565b604051806080016040528060006001600160e01b03191681526020016060815260200160608152602001606081525090565b6040518060800160405280610c98610c53565b81526020016060815260200160008152602001600081525090565b634e487b7160e01b600052604160045260246000fd5b604051601f8201601f1916810167ffffffffffffffff81118282101715610cf257610cf2610cb3565b604052919050565b600067ffffffffffffffff821115610d1457610d14610cb3565b50601f01601f191660200190565b600082601f830112610d3357600080fd5b8135610d46610d4182610cfa565b610cc9565b818152846020838601011115610d5b57600080fd5b816020850160208301376000918101602001919091529392505050565b600060208284031215610d8a57600080fd5b813567ffffffffffffffff811115610da157600080fd5b610dad84828501610d22565b949350505050565b80356001600160a01b0381168114610dcc57600080fd5b919050565b600080600060608486031215610de657600080fd5b610def84610db5565b9250610dfd60208501610db5565b929592945050506040919091013590565b600060208284031215610e2057600080fd5b5035919050565b634e487b7160e01b600052602160045260246000fd5b6020810160038310610e5f57634e487b7160e01b600052602160045260246000fd5b91905290565b600060208284031215610e7757600080fd5b61085782610db5565b600060408284031215610e9257600080fd5b50919050565b600080600060608486031215610ead57600080fd5b833567ffffffffffffffff811115610ec457600080fd5b610ed086828701610e80565b935050602084013567ffffffffffffffff811115610eed57600080fd5b610ef986828701610e80565b93969395505050506040919091013590565b600060208284031215610f1d57600080fd5b5051919050565b60005b83811015610f3f578181015183820152602001610f27565b50506000910152565b60008060408385031215610f5b57600080fd5b8251602084015190925067ffffffffffffffff811115610f7a57600080fd5b8301601f81018513610f8b57600080fd5b8051610f99610d4182610cfa565b818152866020838501011115610fae57600080fd5b610fbf826020830160208601610f24565b8093505050509250929050565b60008151808452610fe4816020860160208601610f24565b601f01601f19169290920160200192915050565b8381528260208201526060604082015260006106b56060830184610fcc565b60006040823603121561102957600080fd5b6040805190810167ffffffffffffffff8111828210171561104c5761104c610cb3565b60405282358152602083013567ffffffffffffffff81111561106d57600080fd5b61107936828601610d22565b60208301525092915050565b602081528151602082015260006020830151604080840152610dad6060840182610fcc565b634e487b7160e01b600052603260045260246000fd5b8082018082111561081e57634e487b7160e01b600052601160045260246000fd5b600081518084526020840193506020830160005b828110156111135781518652602095860195909101906001016110f5565b5093949350505050565b86815260018060a01b038616602082015260c0604082015263ffffffff60e01b85511660c082015260006020860151608060e0840152611161610140840182610fcc565b604088015184820360bf190161010086015280518083526020918201935060009291909101905b808310156111b45783516001600160c01b03191682526020938401936001939093019290910190611188565b50606089015185820360bf190161012087015292506111d381846110e1565b93505050506111ee60608301866001600160e01b0319169052565b6001600160e01b031993909316608082015260a0015294935050505056fea26469706673582212202f3514174311592a216c439af03a3738d16bc3a5b01d485f640cbe9c1c0654c764736f6c634300081a0033",
  "linkReferences": {},
  "deployedLinkReferences": {},
  "immutableReferences": {},
  "inputSourceName": "project/contracts/examples/PrivateAdder.sol",
  "buildInfoId": "solc-0_8_26-fe1a4e4a505966a69217682120b0629c10751bbb"
}