{
  "_format": "hh3-artifact-1",
  "contractName": "DirectMessageCotiTest",
  "sourceName": "contracts/examples/DirectMessageCotiTest.sol",
  "abi": [
    {
      "anonymous": false,
      "inputs": [
        {
          "indexed": true,
          "internalType": "address",
          "name": "recipient",
          "type": "address"
        }
      ],
      "name": "CiphertextSaved",
      "type": "event"
    },
    {
      "inputs": [
        {
          "components": [
            {
              "components": [
                {
                  "internalType": "ctUint64[]",
                  "name": "value",
                  "type": "uint256[]"
                }
              ],
              "internalType": "struct ctString",
              "name": "ciphertext",
              "type": "tuple"
            },
            {
              "internalType": "bytes[]",
              "name": "signature",
              "type": "bytes[]"
            }
          ],
          "internalType": "struct itString",
          "name": "message",
          "type": "tuple"
        },
        {
          "internalType": "address",
          "name": "recipient",
          "type": "address"
        }
      ],
      "name": "receiveMessageDirect",
      "outputs": [],
      "stateMutability": "nonpayable",
      "type": "function"
    }
  ],
  "bytecode": "0x6080604052348015600f57600080fd5b506107e58061001f6000396000f3fe608060405234801561001057600080fd5b506004361061002b5760003560e01c80636f76724314610030575b600080fd5b61004361003e36600461040e565b610045565b005b60006100586100538461061c565b6100d5565b9050600061006582610237565b6001600160a01b0384166000908152602081815260409091208251805193945084939192610098928492909101906103ae565b50506040516001600160a01b03851691507f1a9ee98e12509330665c46c86c009717b69837d4fc8d97df1982f83e10b845fe90600090a250505050565b6040805160208101909152606081526020820151518251515181146101405760405162461bcd60e51b815260206004820152601c60248201527f4d50435f434f52453a20494e56414c49445f494e5055545f5445585400000000604482015260640160405180910390fd5b600060405180602001604052808367ffffffffffffffff81111561016657610166610471565b60405190808252806020026020018201604052801561018f578160200160208202803683370190505b50905260408051808201909152600081526060602082015290915060005b8381101561022d578551518051829081106101ca576101ca61071e565b60209081029190910181015183528601518051829081106101ed576101ed61071e565b60200260200101518260200181905250610206826102ff565b835180518390811061021a5761021a61071e565b60209081029190910101526001016101ad565b5090949350505050565b6040805160208101909152606081528151516040805160208101909152600090808367ffffffffffffffff81111561027157610271610471565b60405190808252806020026020018201604052801561029a578160200160208202803683370190505b509052905060005b828110156102f7576102d0856000015182815181106102c3576102c361071e565b602002602001015161037c565b82518051839081106102e4576102e461071e565b60209081029190910101526001016102a2565b509392505050565b80516020820151604051630e4f36e160e41b815260009260649263e4f36e109261033392600160fa1b929091600401610734565b6020604051808303816000875af1158015610352573d6000803e3d6000fd5b505050506040513d601f19601f820116820180604052508101906103769190610796565b92915050565b6040516362864e0160e11b8152600160fa1b60048201526024810182905260009060649063c50c9c0290604401610333565b8280548282559060005260206000209081019282156103e9579160200282015b828111156103e95782518255916020019190600101906103ce565b506103f59291506103f9565b5090565b5b808211156103f557600081556001016103fa565b6000806040838503121561042157600080fd5b823567ffffffffffffffff81111561043857600080fd5b83016040818603121561044a57600080fd5b915060208301356001600160a01b038116811461046657600080fd5b809150509250929050565b634e487b7160e01b600052604160045260246000fd5b6040805190810167ffffffffffffffff811182821017156104aa576104aa610471565b60405290565b6040516020810167ffffffffffffffff811182821017156104aa576104aa610471565b604051601f8201601f1916810167ffffffffffffffff811182821017156104fc576104fc610471565b604052919050565b600067ffffffffffffffff82111561051e5761051e610471565b5060051b60200190565b600082601f83011261053957600080fd5b813561054c61054782610504565b6104d3565b8082825260208201915060208360051b86010192508583111561056e57600080fd5b602085015b8381101561061257803567ffffffffffffffff81111561059257600080fd5b8601603f810188136105a357600080fd5b602081013567ffffffffffffffff8111156105c0576105c0610471565b6105d3601f8201601f19166020016104d3565b8181526040838301018a10156105e857600080fd5b81604084016020830137600060208383010152808652505050602083019250602081019050610573565b5095945050505050565b60006040823603121561062e57600080fd5b610636610487565b823567ffffffffffffffff81111561064d57600080fd5b8301602036829003121561066057600080fd5b6106686104b0565b813567ffffffffffffffff81111561067f57600080fd5b919091019036601f83011261069357600080fd5b81356106a161054782610504565b8082825260208201915060208360051b8601019250368311156106c357600080fd5b6020850194505b828510156106e55784358252602094850194909101906106ca565b83525050825250602083013567ffffffffffffffff81111561070657600080fd5b61071236828601610528565b60208301525092915050565b634e487b7160e01b600052603260045260246000fd5b60ff60f81b84168152826020820152606060408201526000825180606084015260005b818110156107745760208186018101516080868401015201610757565b506000608082850101526080601f19601f830116840101915050949350505050565b6000602082840312156107a857600080fd5b505191905056fea264697066735822122076c665ced9396bad05b93be810cfb81f13f4585e89839670466a6bb6944e414d64736f6c634300081a0033",
  "linkReferences": {},
  "deployedLinkReferences": {},
  "immutableReferences": {},
  "inputSourceName": "project/contracts/examples/DirectMessageCotiTest.sol",
  "buildInfoId": "solc-0_8_26-fe1a4e4a505966a69217682120b0629c10751bbb"
}