{
  "_format": "hh3-artifact-1",
  "contractName": "PErc20",
  "sourceName": "contracts/examples/perc20/PErc20.sol",
  "abi": [
    {
      "inputs": [
        {
          "internalType": "address",
          "name": "_inbox",
          "type": "address"
        }
      ],
      "stateMutability": "nonpayable",
      "type": "constructor"
    },
    {
      "inputs": [
        {
          "internalType": "address",
          "name": "caller",
          "type": "address"
        }
      ],
      "name": "OnlyInbox",
      "type": "error"
    },
    {
      "inputs": [
        {
          "internalType": "address",
          "name": "owner",
          "type": "address"
        }
      ],
      "name": "OwnableInvalidOwner",
      "type": "error"
    },
    {
      "inputs": [
        {
          "internalType": "address",
          "name": "account",
          "type": "address"
        }
      ],
      "name": "OwnableUnauthorizedAccount",
      "type": "error"
    },
    {
      "anonymous": false,
      "inputs": [
        {
          "indexed": false,
          "internalType": "bytes32",
          "name": "requestId",
          "type": "bytes32"
        },
        {
          "indexed": false,
          "internalType": "uint256",
          "name": "code",
          "type": "uint256"
        },
        {
          "indexed": false,
          "internalType": "string",
          "name": "message",
          "type": "string"
        }
      ],
      "name": "ErrorRemoteCall",
      "type": "event"
    },
    {
      "anonymous": false,
      "inputs": [
        {
          "indexed": true,
          "internalType": "address",
          "name": "previousOwner",
          "type": "address"
        },
        {
          "indexed": true,
          "internalType": "address",
          "name": "newOwner",
          "type": "address"
        }
      ],
      "name": "OwnershipTransferred",
      "type": "event"
    },
    {
      "inputs": [
        {
          "internalType": "bytes32",
          "name": "",
          "type": "bytes32"
        }
      ],
      "name": "balanceOf",
      "outputs": [
        {
          "internalType": "ctUint64",
          "name": "",
          "type": "uint256"
        }
      ],
      "stateMutability": "view",
      "type": "function"
    },
    {
      "inputs": [
        {
          "internalType": "address",
          "name": "inbox_",
          "type": "address"
        },
        {
          "internalType": "address",
          "name": "mpcExecutor_",
          "type": "address"
        },
        {
          "internalType": "uint256",
          "name": "cotiChainId_",
          "type": "uint256"
        }
      ],
      "name": "configure",
      "outputs": [],
      "stateMutability": "nonpayable",
      "type": "function"
    },
    {
      "inputs": [],
      "name": "inbox",
      "outputs": [
        {
          "internalType": "contract IInbox",
          "name": "",
          "type": "address"
        }
      ],
      "stateMutability": "view",
      "type": "function"
    },
    {
      "inputs": [
        {
          "internalType": "bytes32",
          "name": "requestId",
          "type": "bytes32"
        }
      ],
      "name": "onDefaultMpcError",
      "outputs": [],
      "stateMutability": "nonpayable",
      "type": "function"
    },
    {
      "inputs": [],
      "name": "owner",
      "outputs": [
        {
          "internalType": "address",
          "name": "",
          "type": "address"
        }
      ],
      "stateMutability": "view",
      "type": "function"
    },
    {
      "inputs": [],
      "name": "renounceOwnership",
      "outputs": [],
      "stateMutability": "nonpayable",
      "type": "function"
    },
    {
      "inputs": [
        {
          "components": [
            {
              "components": [
                {
                  "components": [
                    {
                      "internalType": "ctUint64",
                      "name": "high",
                      "type": "uint256"
                    },
                    {
                      "internalType": "ctUint64",
                      "name": "low",
                      "type": "uint256"
                    }
                  ],
                  "internalType": "struct ctUint128",
                  "name": "high",
                  "type": "tuple"
                },
                {
                  "components": [
                    {
                      "internalType": "ctUint64",
                      "name": "high",
                      "type": "uint256"
                    },
                    {
                      "internalType": "ctUint64",
                      "name": "low",
                      "type": "uint256"
                    }
                  ],
                  "internalType": "struct ctUint128",
                  "name": "low",
                  "type": "tuple"
                }
              ],
              "internalType": "struct ctUint256",
              "name": "ciphertext",
              "type": "tuple"
            },
            {
              "internalType": "bytes[2][2]",
              "name": "signature",
              "type": "bytes[2][2]"
            }
          ],
          "internalType": "struct itUint256",
          "name": "to",
          "type": "tuple"
        },
        {
          "components": [
            {
              "internalType": "ctUint64",
              "name": "ciphertext",
              "type": "uint256"
            },
            {
              "internalType": "bytes",
              "name": "signature",
              "type": "bytes"
            }
          ],
          "internalType": "struct itUint64",
          "name": "amount",
          "type": "tuple"
        },
        {
          "internalType": "uint256",
          "name": "callbackFeeLocalWei",
          "type": "uint256"
        }
      ],
      "name": "transfer",
      "outputs": [],
      "stateMutability": "payable",
      "type": "function"
    },
    {
      "inputs": [
        {
          "internalType": "address",
          "name": "newOwner",
          "type": "address"
        }
      ],
      "name": "transferOwnership",
      "outputs": [],
      "stateMutability": "nonpayable",
      "type": "function"
    },
    {
      "inputs": [
        {
          "internalType": "bytes",
          "name": "data",
          "type": "bytes"
        }
      ],
      "name": "updateBalanceCallback",
      "outputs": [],
      "stateMutability": "nonpayable",
      "type": "function"
    },
    {
      "stateMutability": "payable",
      "type": "receive"
    }
  ],
  "bytecode": "0x6080604052600280546001600160a01b031916905562282b3460035534801561002757600080fd5b506040516113d23803806113d283398101604081905261004691610103565b3380808061006e57604051631e4fbdf760e01b81526000600482015260240160405180910390fd5b6100778161008f565b505050610089816100e160201b60201c565b50610133565b600180546001600160a01b038381166001600160a01b0319831681179093556040519116919082907f8be0079c531659141344cd1fd0a4f28419497f9722a3daafe3b4186f6b6457e090600090a35050565b600080546001600160a01b0319166001600160a01b0392909216919091179055565b60006020828403121561011557600080fd5b81516001600160a01b038116811461012c57600080fd5b9392505050565b611290806101426000396000f3fe60806040526004361061008a5760003560e01c80638da5cb5b116100595780638da5cb5b14610120578063c31614a414610152578063d0d6799614610172578063f2fde38b14610192578063fb0e722b146101b257600080fd5b806345a51021146100965780636c7f1542146100ab578063715018a6146100eb57806378e6811d1461010057600080fd5b3661009157005b600080fd5b6100a96100a4366004610ace565b6101d2565b005b3480156100b757600080fd5b506100d86100c6366004610b49565b60046020526000908152604090205481565b6040519081526020015b60405180910390f35b3480156100f757600080fd5b506100a9610252565b34801561010c57600080fd5b506100a961011b366004610b7e565b610266565b34801561012c57600080fd5b506001546001600160a01b03165b6040516001600160a01b0390911681526020016100e2565b34801561015e57600080fd5b506100a961016d366004610b49565b6102be565b34801561017e57600080fd5b506100a961018d366004610c95565b6103a6565b34801561019e57600080fd5b506100a96101ad366004610cd1565b61040d565b3480156101be57600080fd5b5060005461013a906001600160a01b031681565b600061021b6102166101e385610cec565b6102106101ef88610d6c565b61020a336102046280a96d60e41b600361044b565b90610582565b906105c1565b906105f4565b610627565b60035460025491925061024b91349185916001600160a01b03168563686b3ccb60e11b6330c5852960e21b610763565b5050505050565b61025a6108e3565b6102646000610910565b565b61026e6108e3565b6001600160a01b0383161561029957600080546001600160a01b0319166001600160a01b0385161790555b600280546001600160a01b0319166001600160a01b0384161790556003819055505050565b6000546001600160a01b031633146102f05760405163625bb43760e11b81523360048201526024015b60405180910390fd5b60008054604051633d5c08e760e01b81526004810184905282916001600160a01b031690633d5c08e790602401600060405180830381865afa15801561033a573d6000803e3d6000fd5b505050506040513d6000823e601f3d908101601f191682016040526103629190810190610ed6565b915091507f619a7489bf8601fb5b4d4baa3ac966cc83cbb97ea0646e8cec620a75fdde73c483838360405161039993929190610f85565b60405180910390a1505050565b6000546001600160a01b031633146103d35760405163625bb43760e11b81523360048201526024016102e7565b600080600080848060200190518101906103ed9190610fad565b600093845260046020526040808520939093559083529120555050505050565b6104156108e3565b6001600160a01b03811661043f57604051631e4fbdf760e01b8152600060048201526024016102e7565b61044881610910565b50565b610453610a6e565b60408051610100810182526001600160e01b03198516608082019081528251600081526020810190935260a082019290925290819060c08201856001600160401b038111156104a4576104a4610baa565b6040519080825280602002602001820160405280156104cd578160200160208202803683370190505b508152602001856001600160401b038111156104eb576104eb610baa565b604051908082528060200260200182016040528015610514578160200160208202803683370190505b5090528152602001836001600160401b0381111561053457610534610baa565b60405190808252806020026020018201604052801561056757816020015b60608152602001906001900390816105525790505b50815260200160008152602001600081525090505b92915050565b61058a610a6e565b604080516001600160a01b03841660208201526105ba918591016040516020818303038152906040526001610962565b9392505050565b6105c9610a6e565b6105ba83836040516020016105de9190610fe3565b6040516020818303038152906040526010610962565b6105fc610a6e565b6105ba838360405160200161061191906110a4565b604051602081830303815290604052600e610962565b61062f610a9c565b600082604001516001600160401b0381111561064d5761064d610baa565b6040519080825280601f01601f191660200182016040528015610677576020820181803683370190505b5090506000805b8460600151811015610756576000856020015182815181106106a2576106a26110c9565b60200260200101519050805160001b86600001516060015183815181106106cb576106cb6110c9565b60200260200101818152505060005b815181101561073e578181815181106106f5576106f56110c9565b01602001516001600160f81b0319168561070f83876110df565b8151811061071f5761071f6110c9565b60200101906001600160f81b031916908160001a9053506001016106da565b50805161074b90846110df565b92505060010161067e565b5050825160200152505190565b600060018710156107b65760405162461bcd60e51b815260206004820152601860248201527f506f644c69623a2063616c6c6261636b20666565206d696e000000000000000060448201526064016102e7565b878711156108065760405162461bcd60e51b815260206004820152601e60248201527f506f644c69623a2063616c6c6261636b206578636565647320746f74616c000060448201526064016102e7565b8747101561084a5760405162461bcd60e51b8152602060048201526011602482015270506f644c69623a20696e626f782066656560781b60448201526064016102e7565b60008054906101000a90046001600160a01b03166001600160a01b031663ba5814658988888888888e6040518863ffffffff1660e01b81526004016108949695949392919061113c565b60206040518083038185885af11580156108b2573d6000803e3d6000fd5b50505050506040513d601f19601f820116820180604052508101906108d7919061122b565b98975050505050505050565b6001546001600160a01b031633146102645760405163118cdaa760e01b81523360048201526024016102e7565b600180546001600160a01b038381166001600160a01b0319831681179093556040519116919082907f8be0079c531659141344cd1fd0a4f28419497f9722a3daafe3b4186f6b6457e090600090a35050565b61096a610a6e565b835160400151516060850151106109c35760405162461bcd60e51b815260206004820152601a60248201527f4d7063416269436f6465633a20746f6f206d616e79206172677300000000000060448201526064016102e7565b8160118111156109d5576109d5611244565b60ff1660c01b8460000151604001518560600151815181106109f9576109f96110c9565b6001600160c01b031990921660209283029190910182015284015160608501518151859291908110610a2d57610a2d6110c9565b6020026020010181905250825184604001818151610a4b91906110df565b90525060608401805160019190610a639083906110df565b905250929392505050565b6040518060800160405280610a81610a9c565b81526020016060815260200160008152602001600081525090565b604051806080016040528060006001600160e01b03191681526020016060815260200160608152602001606081525090565b600080600060608486031215610ae357600080fd5b83356001600160401b03811115610af957600080fd5b840160a08187031215610b0b57600080fd5b925060208401356001600160401b03811115610b2657600080fd5b840160408187031215610b3857600080fd5b929592945050506040919091013590565b600060208284031215610b5b57600080fd5b5035919050565b80356001600160a01b0381168114610b7957600080fd5b919050565b600080600060608486031215610b9357600080fd5b610b9c84610b62565b9250610b3860208501610b62565b634e487b7160e01b600052604160045260246000fd5b604080519081016001600160401b0381118282101715610be257610be2610baa565b60405290565b604051601f8201601f191681016001600160401b0381118282101715610c1057610c10610baa565b604052919050565b60006001600160401b03821115610c3157610c31610baa565b50601f01601f191660200190565b600082601f830112610c5057600080fd5b8135610c63610c5e82610c18565b610be8565b818152846020838601011115610c7857600080fd5b816020850160208301376000918101602001919091529392505050565b600060208284031215610ca757600080fd5b81356001600160401b03811115610cbd57600080fd5b610cc984828501610c3f565b949350505050565b600060208284031215610ce357600080fd5b6105ba82610b62565b600060408236031215610cfe57600080fd5b610d06610bc0565b8235815260208301356001600160401b03811115610d2357600080fd5b610d2f36828601610c3f565b60208301525092915050565b600060408284031215610d4d57600080fd5b610d55610bc0565b823581526020928301359281019290925250919050565b600081360360a0811215610d7f57600080fd5b610d87610bc0565b6080821215610d9557600080fd5b610d9d610bc0565b9150610da93685610d3b565b8252610db83660408601610d3b565b60208301529081526080830135906001600160401b03821115610dda57600080fd5b9083019036601f830112610ded57600080fd5b6040610df881610be8565b8082850136811115610e0957600080fd5b855b81811015610ea15780356001600160401b03811115610e2957600080fd5b870136601f820112610e3a57600080fd5b610e4386610be8565b8087830136811115610e5457600080fd5b835b81811015610e8f5780356001600160401b03811115610e7457600080fd5b610e8036828801610c3f565b85525060209384019301610e56565b50508652505060209384019301610e0b565b505060208401525090949350505050565b60005b83811015610ecd578181015183820152602001610eb5565b50506000910152565b60008060408385031215610ee957600080fd5b825160208401519092506001600160401b03811115610f0757600080fd5b8301601f81018513610f1857600080fd5b8051610f26610c5e82610c18565b818152866020838501011115610f3b57600080fd5b610f4c826020830160208601610eb2565b8093505050509250929050565b60008151808452610f71816020860160208601610eb2565b601f01601f19169290920160200192915050565b838152826020820152606060408201526000610fa46060830184610f59565b95945050505050565b60008060008060808587031215610fc357600080fd5b505082516020840151604085015160609095015191969095509092509050565b60208152600060c08201835161100760208501825180518252602090810151910152565b60200151611022606085018280518252602090810151910152565b50602084015160a08481015261010084019160005b60028110156110995785840360bf190182528251846040810160005b600281101561108157878203835261106c828551610f59565b60209485019493909301929150600101611053565b50955050506020928301929190910190600101611037565b509195945050505050565b602081528151602082015260006020830151604080840152610cc96060840182610f59565b634e487b7160e01b600052603260045260246000fd5b8082018082111561057c57634e487b7160e01b600052601160045260246000fd5b600081518084526020840193506020830160005b82811015611132578151865260209586019590910190600101611114565b5093949350505050565b86815260018060a01b038616602082015260c0604082015263ffffffff60e01b85511660c082015260006020860151608060e0840152611180610140840182610f59565b604088015184820360bf190161010086015280518083526020918201935060009291909101905b808310156111d35783516001600160c01b031916825260209384019360019390930192909101906111a7565b50606089015185820360bf190161012087015292506111f28184611100565b935050505061120d60608301866001600160e01b0319169052565b6001600160e01b031993909316608082015260a00152949350505050565b60006020828403121561123d57600080fd5b5051919050565b634e487b7160e01b600052602160045260246000fdfea264697066735822122057968e782a06c462f72661c41f3878f7339a531aa52ba8c6bee5e677aeb4782c64736f6c634300081a0033",
  "linkReferences": {},
  "deployedLinkReferences": {},
  "immutableReferences": {},
  "inputSourceName": "project/contracts/examples/perc20/PErc20.sol",
  "buildInfoId": "solc-0_8_26-fe1a4e4a505966a69217682120b0629c10751bbb"
}