{
  "_format": "hh3-artifact-1",
  "contractName": "PodTest256",
  "sourceName": "contracts/examples/pod/PodTest256.sol",
  "abi": [
    {
      "inputs": [
        {
          "internalType": "address",
          "name": "_inbox",
          "type": "address"
        }
      ],
      "stateMutability": "nonpayable",
      "type": "constructor"
    },
    {
      "inputs": [
        {
          "internalType": "address",
          "name": "caller",
          "type": "address"
        }
      ],
      "name": "OnlyInbox",
      "type": "error"
    },
    {
      "inputs": [
        {
          "internalType": "address",
          "name": "owner",
          "type": "address"
        }
      ],
      "name": "OwnableInvalidOwner",
      "type": "error"
    },
    {
      "inputs": [
        {
          "internalType": "address",
          "name": "account",
          "type": "address"
        }
      ],
      "name": "OwnableUnauthorizedAccount",
      "type": "error"
    },
    {
      "anonymous": false,
      "inputs": [
        {
          "indexed": false,
          "internalType": "bytes32",
          "name": "requestId",
          "type": "bytes32"
        },
        {
          "indexed": false,
          "internalType": "uint256",
          "name": "code",
          "type": "uint256"
        },
        {
          "indexed": false,
          "internalType": "string",
          "name": "message",
          "type": "string"
        }
      ],
      "name": "ErrorRemoteCall",
      "type": "event"
    },
    {
      "anonymous": false,
      "inputs": [
        {
          "indexed": true,
          "internalType": "address",
          "name": "previousOwner",
          "type": "address"
        },
        {
          "indexed": true,
          "internalType": "address",
          "name": "newOwner",
          "type": "address"
        }
      ],
      "name": "OwnershipTransferred",
      "type": "event"
    },
    {
      "inputs": [
        {
          "internalType": "address",
          "name": "inbox_",
          "type": "address"
        },
        {
          "internalType": "address",
          "name": "mpcExecutor_",
          "type": "address"
        },
        {
          "internalType": "uint256",
          "name": "cotiChainId_",
          "type": "uint256"
        }
      ],
      "name": "configure",
      "outputs": [],
      "stateMutability": "nonpayable",
      "type": "function"
    },
    {
      "inputs": [
        {
          "components": [
            {
              "components": [
                {
                  "components": [
                    {
                      "internalType": "ctUint64",
                      "name": "high",
                      "type": "uint256"
                    },
                    {
                      "internalType": "ctUint64",
                      "name": "low",
                      "type": "uint256"
                    }
                  ],
                  "internalType": "struct ctUint128",
                  "name": "high",
                  "type": "tuple"
                },
                {
                  "components": [
                    {
                      "internalType": "ctUint64",
                      "name": "high",
                      "type": "uint256"
                    },
                    {
                      "internalType": "ctUint64",
                      "name": "low",
                      "type": "uint256"
                    }
                  ],
                  "internalType": "struct ctUint128",
                  "name": "low",
                  "type": "tuple"
                }
              ],
              "internalType": "struct ctUint256",
              "name": "ciphertext",
              "type": "tuple"
            },
            {
              "internalType": "bytes[2][2]",
              "name": "signature",
              "type": "bytes[2][2]"
            }
          ],
          "internalType": "struct itUint256",
          "name": "a",
          "type": "tuple"
        },
        {
          "components": [
            {
              "components": [
                {
                  "components": [
                    {
                      "internalType": "ctUint64",
                      "name": "high",
                      "type": "uint256"
                    },
                    {
                      "internalType": "ctUint64",
                      "name": "low",
                      "type": "uint256"
                    }
                  ],
                  "internalType": "struct ctUint128",
                  "name": "high",
                  "type": "tuple"
                },
                {
                  "components": [
                    {
                      "internalType": "ctUint64",
                      "name": "high",
                      "type": "uint256"
                    },
                    {
                      "internalType": "ctUint64",
                      "name": "low",
                      "type": "uint256"
                    }
                  ],
                  "internalType": "struct ctUint128",
                  "name": "low",
                  "type": "tuple"
                }
              ],
              "internalType": "struct ctUint256",
              "name": "ciphertext",
              "type": "tuple"
            },
            {
              "internalType": "bytes[2][2]",
              "name": "signature",
              "type": "bytes[2][2]"
            }
          ],
          "internalType": "struct itUint256",
          "name": "b",
          "type": "tuple"
        },
        {
          "internalType": "uint256",
          "name": "callbackFeeLocalWei",
          "type": "uint256"
        }
      ],
      "name": "execAdd256",
      "outputs": [],
      "stateMutability": "payable",
      "type": "function"
    },
    {
      "inputs": [
        {
          "components": [
            {
              "components": [
                {
                  "components": [
                    {
                      "internalType": "ctUint64",
                      "name": "high",
                      "type": "uint256"
                    },
                    {
                      "internalType": "ctUint64",
                      "name": "low",
                      "type": "uint256"
                    }
                  ],
                  "internalType": "struct ctUint128",
                  "name": "high",
                  "type": "tuple"
                },
                {
                  "components": [
                    {
                      "internalType": "ctUint64",
                      "name": "high",
                      "type": "uint256"
                    },
                    {
                      "internalType": "ctUint64",
                      "name": "low",
                      "type": "uint256"
                    }
                  ],
                  "internalType": "struct ctUint128",
                  "name": "low",
                  "type": "tuple"
                }
              ],
              "internalType": "struct ctUint256",
              "name": "ciphertext",
              "type": "tuple"
            },
            {
              "internalType": "bytes[2][2]",
              "name": "signature",
              "type": "bytes[2][2]"
            }
          ],
          "internalType": "struct itUint256",
          "name": "a",
          "type": "tuple"
        },
        {
          "components": [
            {
              "components": [
                {
                  "components": [
                    {
                      "internalType": "ctUint64",
                      "name": "high",
                      "type": "uint256"
                    },
                    {
                      "internalType": "ctUint64",
                      "name": "low",
                      "type": "uint256"
                    }
                  ],
                  "internalType": "struct ctUint128",
                  "name": "high",
                  "type": "tuple"
                },
                {
                  "components": [
                    {
                      "internalType": "ctUint64",
                      "name": "high",
                      "type": "uint256"
                    },
                    {
                      "internalType": "ctUint64",
                      "name": "low",
                      "type": "uint256"
                    }
                  ],
                  "internalType": "struct ctUint128",
                  "name": "low",
                  "type": "tuple"
                }
              ],
              "internalType": "struct ctUint256",
              "name": "ciphertext",
              "type": "tuple"
            },
            {
              "internalType": "bytes[2][2]",
              "name": "signature",
              "type": "bytes[2][2]"
            }
          ],
          "internalType": "struct itUint256",
          "name": "b",
          "type": "tuple"
        },
        {
          "internalType": "uint256",
          "name": "callbackFeeLocalWei",
          "type": "uint256"
        }
      ],
      "name": "execAnd256",
      "outputs": [],
      "stateMutability": "payable",
      "type": "function"
    },
    {
      "inputs": [
        {
          "components": [
            {
              "components": [
                {
                  "components": [
                    {
                      "internalType": "ctUint64",
                      "name": "high",
                      "type": "uint256"
                    },
                    {
                      "internalType": "ctUint64",
                      "name": "low",
                      "type": "uint256"
                    }
                  ],
                  "internalType": "struct ctUint128",
                  "name": "high",
                  "type": "tuple"
                },
                {
                  "components": [
                    {
                      "internalType": "ctUint64",
                      "name": "high",
                      "type": "uint256"
                    },
                    {
                      "internalType": "ctUint64",
                      "name": "low",
                      "type": "uint256"
                    }
                  ],
                  "internalType": "struct ctUint128",
                  "name": "low",
                  "type": "tuple"
                }
              ],
              "internalType": "struct ctUint256",
              "name": "ciphertext",
              "type": "tuple"
            },
            {
              "internalType": "bytes[2][2]",
              "name": "signature",
              "type": "bytes[2][2]"
            }
          ],
          "internalType": "struct itUint256",
          "name": "a",
          "type": "tuple"
        },
        {
          "components": [
            {
              "components": [
                {
                  "components": [
                    {
                      "internalType": "ctUint64",
                      "name": "high",
                      "type": "uint256"
                    },
                    {
                      "internalType": "ctUint64",
                      "name": "low",
                      "type": "uint256"
                    }
                  ],
                  "internalType": "struct ctUint128",
                  "name": "high",
                  "type": "tuple"
                },
                {
                  "components": [
                    {
                      "internalType": "ctUint64",
                      "name": "high",
                      "type": "uint256"
                    },
                    {
                      "internalType": "ctUint64",
                      "name": "low",
                      "type": "uint256"
                    }
                  ],
                  "internalType": "struct ctUint128",
                  "name": "low",
                  "type": "tuple"
                }
              ],
              "internalType": "struct ctUint256",
              "name": "ciphertext",
              "type": "tuple"
            },
            {
              "internalType": "bytes[2][2]",
              "name": "signature",
              "type": "bytes[2][2]"
            }
          ],
          "internalType": "struct itUint256",
          "name": "b",
          "type": "tuple"
        },
        {
          "internalType": "uint256",
          "name": "callbackFeeLocalWei",
          "type": "uint256"
        }
      ],
      "name": "execEq256",
      "outputs": [],
      "stateMutability": "payable",
      "type": "function"
    },
    {
      "inputs": [
        {
          "components": [
            {
              "components": [
                {
                  "components": [
                    {
                      "internalType": "ctUint64",
                      "name": "high",
                      "type": "uint256"
                    },
                    {
                      "internalType": "ctUint64",
                      "name": "low",
                      "type": "uint256"
                    }
                  ],
                  "internalType": "struct ctUint128",
                  "name": "high",
                  "type": "tuple"
                },
                {
                  "components": [
                    {
                      "internalType": "ctUint64",
                      "name": "high",
                      "type": "uint256"
                    },
                    {
                      "internalType": "ctUint64",
                      "name": "low",
                      "type": "uint256"
                    }
                  ],
                  "internalType": "struct ctUint128",
                  "name": "low",
                  "type": "tuple"
                }
              ],
              "internalType": "struct ctUint256",
              "name": "ciphertext",
              "type": "tuple"
            },
            {
              "internalType": "bytes[2][2]",
              "name": "signature",
              "type": "bytes[2][2]"
            }
          ],
          "internalType": "struct itUint256",
          "name": "a",
          "type": "tuple"
        },
        {
          "components": [
            {
              "components": [
                {
                  "components": [
                    {
                      "internalType": "ctUint64",
                      "name": "high",
                      "type": "uint256"
                    },
                    {
                      "internalType": "ctUint64",
                      "name": "low",
                      "type": "uint256"
                    }
                  ],
                  "internalType": "struct ctUint128",
                  "name": "high",
                  "type": "tuple"
                },
                {
                  "components": [
                    {
                      "internalType": "ctUint64",
                      "name": "high",
                      "type": "uint256"
                    },
                    {
                      "internalType": "ctUint64",
                      "name": "low",
                      "type": "uint256"
                    }
                  ],
                  "internalType": "struct ctUint128",
                  "name": "low",
                  "type": "tuple"
                }
              ],
              "internalType": "struct ctUint256",
              "name": "ciphertext",
              "type": "tuple"
            },
            {
              "internalType": "bytes[2][2]",
              "name": "signature",
              "type": "bytes[2][2]"
            }
          ],
          "internalType": "struct itUint256",
          "name": "b",
          "type": "tuple"
        },
        {
          "internalType": "uint256",
          "name": "callbackFeeLocalWei",
          "type": "uint256"
        }
      ],
      "name": "execGe256",
      "outputs": [],
      "stateMutability": "payable",
      "type": "function"
    },
    {
      "inputs": [
        {
          "components": [
            {
              "components": [
                {
                  "components": [
                    {
                      "internalType": "ctUint64",
                      "name": "high",
                      "type": "uint256"
                    },
                    {
                      "internalType": "ctUint64",
                      "name": "low",
                      "type": "uint256"
                    }
                  ],
                  "internalType": "struct ctUint128",
                  "name": "high",
                  "type": "tuple"
                },
                {
                  "components": [
                    {
                      "internalType": "ctUint64",
                      "name": "high",
                      "type": "uint256"
                    },
                    {
                      "internalType": "ctUint64",
                      "name": "low",
                      "type": "uint256"
                    }
                  ],
                  "internalType": "struct ctUint128",
                  "name": "low",
                  "type": "tuple"
                }
              ],
              "internalType": "struct ctUint256",
              "name": "ciphertext",
              "type": "tuple"
            },
            {
              "internalType": "bytes[2][2]",
              "name": "signature",
              "type": "bytes[2][2]"
            }
          ],
          "internalType": "struct itUint256",
          "name": "a",
          "type": "tuple"
        },
        {
          "components": [
            {
              "components": [
                {
                  "components": [
                    {
                      "internalType": "ctUint64",
                      "name": "high",
                      "type": "uint256"
                    },
                    {
                      "internalType": "ctUint64",
                      "name": "low",
                      "type": "uint256"
                    }
                  ],
                  "internalType": "struct ctUint128",
                  "name": "high",
                  "type": "tuple"
                },
                {
                  "components": [
                    {
                      "internalType": "ctUint64",
                      "name": "high",
                      "type": "uint256"
                    },
                    {
                      "internalType": "ctUint64",
                      "name": "low",
                      "type": "uint256"
                    }
                  ],
                  "internalType": "struct ctUint128",
                  "name": "low",
                  "type": "tuple"
                }
              ],
              "internalType": "struct ctUint256",
              "name": "ciphertext",
              "type": "tuple"
            },
            {
              "internalType": "bytes[2][2]",
              "name": "signature",
              "type": "bytes[2][2]"
            }
          ],
          "internalType": "struct itUint256",
          "name": "b",
          "type": "tuple"
        },
        {
          "internalType": "uint256",
          "name": "callbackFeeLocalWei",
          "type": "uint256"
        }
      ],
      "name": "execGt256",
      "outputs": [],
      "stateMutability": "payable",
      "type": "function"
    },
    {
      "inputs": [
        {
          "components": [
            {
              "components": [
                {
                  "components": [
                    {
                      "internalType": "ctUint64",
                      "name": "high",
                      "type": "uint256"
                    },
                    {
                      "internalType": "ctUint64",
                      "name": "low",
                      "type": "uint256"
                    }
                  ],
                  "internalType": "struct ctUint128",
                  "name": "high",
                  "type": "tuple"
                },
                {
                  "components": [
                    {
                      "internalType": "ctUint64",
                      "name": "high",
                      "type": "uint256"
                    },
                    {
                      "internalType": "ctUint64",
                      "name": "low",
                      "type": "uint256"
                    }
                  ],
                  "internalType": "struct ctUint128",
                  "name": "low",
                  "type": "tuple"
                }
              ],
              "internalType": "struct ctUint256",
              "name": "ciphertext",
              "type": "tuple"
            },
            {
              "internalType": "bytes[2][2]",
              "name": "signature",
              "type": "bytes[2][2]"
            }
          ],
          "internalType": "struct itUint256",
          "name": "a",
          "type": "tuple"
        },
        {
          "components": [
            {
              "components": [
                {
                  "components": [
                    {
                      "internalType": "ctUint64",
                      "name": "high",
                      "type": "uint256"
                    },
                    {
                      "internalType": "ctUint64",
                      "name": "low",
                      "type": "uint256"
                    }
                  ],
                  "internalType": "struct ctUint128",
                  "name": "high",
                  "type": "tuple"
                },
                {
                  "components": [
                    {
                      "internalType": "ctUint64",
                      "name": "high",
                      "type": "uint256"
                    },
                    {
                      "internalType": "ctUint64",
                      "name": "low",
                      "type": "uint256"
                    }
                  ],
                  "internalType": "struct ctUint128",
                  "name": "low",
                  "type": "tuple"
                }
              ],
              "internalType": "struct ctUint256",
              "name": "ciphertext",
              "type": "tuple"
            },
            {
              "internalType": "bytes[2][2]",
              "name": "signature",
              "type": "bytes[2][2]"
            }
          ],
          "internalType": "struct itUint256",
          "name": "b",
          "type": "tuple"
        },
        {
          "internalType": "uint256",
          "name": "callbackFeeLocalWei",
          "type": "uint256"
        }
      ],
      "name": "execLe256",
      "outputs": [],
      "stateMutability": "payable",
      "type": "function"
    },
    {
      "inputs": [
        {
          "components": [
            {
              "components": [
                {
                  "components": [
                    {
                      "internalType": "ctUint64",
                      "name": "high",
                      "type": "uint256"
                    },
                    {
                      "internalType": "ctUint64",
                      "name": "low",
                      "type": "uint256"
                    }
                  ],
                  "internalType": "struct ctUint128",
                  "name": "high",
                  "type": "tuple"
                },
                {
                  "components": [
                    {
                      "internalType": "ctUint64",
                      "name": "high",
                      "type": "uint256"
                    },
                    {
                      "internalType": "ctUint64",
                      "name": "low",
                      "type": "uint256"
                    }
                  ],
                  "internalType": "struct ctUint128",
                  "name": "low",
                  "type": "tuple"
                }
              ],
              "internalType": "struct ctUint256",
              "name": "ciphertext",
              "type": "tuple"
            },
            {
              "internalType": "bytes[2][2]",
              "name": "signature",
              "type": "bytes[2][2]"
            }
          ],
          "internalType": "struct itUint256",
          "name": "a",
          "type": "tuple"
        },
        {
          "components": [
            {
              "components": [
                {
                  "components": [
                    {
                      "internalType": "ctUint64",
                      "name": "high",
                      "type": "uint256"
                    },
                    {
                      "internalType": "ctUint64",
                      "name": "low",
                      "type": "uint256"
                    }
                  ],
                  "internalType": "struct ctUint128",
                  "name": "high",
                  "type": "tuple"
                },
                {
                  "components": [
                    {
                      "internalType": "ctUint64",
                      "name": "high",
                      "type": "uint256"
                    },
                    {
                      "internalType": "ctUint64",
                      "name": "low",
                      "type": "uint256"
                    }
                  ],
                  "internalType": "struct ctUint128",
                  "name": "low",
                  "type": "tuple"
                }
              ],
              "internalType": "struct ctUint256",
              "name": "ciphertext",
              "type": "tuple"
            },
            {
              "internalType": "bytes[2][2]",
              "name": "signature",
              "type": "bytes[2][2]"
            }
          ],
          "internalType": "struct itUint256",
          "name": "b",
          "type": "tuple"
        },
        {
          "internalType": "uint256",
          "name": "callbackFeeLocalWei",
          "type": "uint256"
        }
      ],
      "name": "execLt256",
      "outputs": [],
      "stateMutability": "payable",
      "type": "function"
    },
    {
      "inputs": [
        {
          "components": [
            {
              "components": [
                {
                  "components": [
                    {
                      "internalType": "ctUint64",
                      "name": "high",
                      "type": "uint256"
                    },
                    {
                      "internalType": "ctUint64",
                      "name": "low",
                      "type": "uint256"
                    }
                  ],
                  "internalType": "struct ctUint128",
                  "name": "high",
                  "type": "tuple"
                },
                {
                  "components": [
                    {
                      "internalType": "ctUint64",
                      "name": "high",
                      "type": "uint256"
                    },
                    {
                      "internalType": "ctUint64",
                      "name": "low",
                      "type": "uint256"
                    }
                  ],
                  "internalType": "struct ctUint128",
                  "name": "low",
                  "type": "tuple"
                }
              ],
              "internalType": "struct ctUint256",
              "name": "ciphertext",
              "type": "tuple"
            },
            {
              "internalType": "bytes[2][2]",
              "name": "signature",
              "type": "bytes[2][2]"
            }
          ],
          "internalType": "struct itUint256",
          "name": "a",
          "type": "tuple"
        },
        {
          "components": [
            {
              "components": [
                {
                  "components": [
                    {
                      "internalType": "ctUint64",
                      "name": "high",
                      "type": "uint256"
                    },
                    {
                      "internalType": "ctUint64",
                      "name": "low",
                      "type": "uint256"
                    }
                  ],
                  "internalType": "struct ctUint128",
                  "name": "high",
                  "type": "tuple"
                },
                {
                  "components": [
                    {
                      "internalType": "ctUint64",
                      "name": "high",
                      "type": "uint256"
                    },
                    {
                      "internalType": "ctUint64",
                      "name": "low",
                      "type": "uint256"
                    }
                  ],
                  "internalType": "struct ctUint128",
                  "name": "low",
                  "type": "tuple"
                }
              ],
              "internalType": "struct ctUint256",
              "name": "ciphertext",
              "type": "tuple"
            },
            {
              "internalType": "bytes[2][2]",
              "name": "signature",
              "type": "bytes[2][2]"
            }
          ],
          "internalType": "struct itUint256",
          "name": "b",
          "type": "tuple"
        },
        {
          "internalType": "uint256",
          "name": "callbackFeeLocalWei",
          "type": "uint256"
        }
      ],
      "name": "execMax256",
      "outputs": [],
      "stateMutability": "payable",
      "type": "function"
    },
    {
      "inputs": [
        {
          "components": [
            {
              "components": [
                {
                  "components": [
                    {
                      "internalType": "ctUint64",
                      "name": "high",
                      "type": "uint256"
                    },
                    {
                      "internalType": "ctUint64",
                      "name": "low",
                      "type": "uint256"
                    }
                  ],
                  "internalType": "struct ctUint128",
                  "name": "high",
                  "type": "tuple"
                },
                {
                  "components": [
                    {
                      "internalType": "ctUint64",
                      "name": "high",
                      "type": "uint256"
                    },
                    {
                      "internalType": "ctUint64",
                      "name": "low",
                      "type": "uint256"
                    }
                  ],
                  "internalType": "struct ctUint128",
                  "name": "low",
                  "type": "tuple"
                }
              ],
              "internalType": "struct ctUint256",
              "name": "ciphertext",
              "type": "tuple"
            },
            {
              "internalType": "bytes[2][2]",
              "name": "signature",
              "type": "bytes[2][2]"
            }
          ],
          "internalType": "struct itUint256",
          "name": "a",
          "type": "tuple"
        },
        {
          "components": [
            {
              "components": [
                {
                  "components": [
                    {
                      "internalType": "ctUint64",
                      "name": "high",
                      "type": "uint256"
                    },
                    {
                      "internalType": "ctUint64",
                      "name": "low",
                      "type": "uint256"
                    }
                  ],
                  "internalType": "struct ctUint128",
                  "name": "high",
                  "type": "tuple"
                },
                {
                  "components": [
                    {
                      "internalType": "ctUint64",
                      "name": "high",
                      "type": "uint256"
                    },
                    {
                      "internalType": "ctUint64",
                      "name": "low",
                      "type": "uint256"
                    }
                  ],
                  "internalType": "struct ctUint128",
                  "name": "low",
                  "type": "tuple"
                }
              ],
              "internalType": "struct ctUint256",
              "name": "ciphertext",
              "type": "tuple"
            },
            {
              "internalType": "bytes[2][2]",
              "name": "signature",
              "type": "bytes[2][2]"
            }
          ],
          "internalType": "struct itUint256",
          "name": "b",
          "type": "tuple"
        },
        {
          "internalType": "uint256",
          "name": "callbackFeeLocalWei",
          "type": "uint256"
        }
      ],
      "name": "execMin256",
      "outputs": [],
      "stateMutability": "payable",
      "type": "function"
    },
    {
      "inputs": [
        {
          "components": [
            {
              "components": [
                {
                  "components": [
                    {
                      "internalType": "ctUint64",
                      "name": "high",
                      "type": "uint256"
                    },
                    {
                      "internalType": "ctUint64",
                      "name": "low",
                      "type": "uint256"
                    }
                  ],
                  "internalType": "struct ctUint128",
                  "name": "high",
                  "type": "tuple"
                },
                {
                  "components": [
                    {
                      "internalType": "ctUint64",
                      "name": "high",
                      "type": "uint256"
                    },
                    {
                      "internalType": "ctUint64",
                      "name": "low",
                      "type": "uint256"
                    }
                  ],
                  "internalType": "struct ctUint128",
                  "name": "low",
                  "type": "tuple"
                }
              ],
              "internalType": "struct ctUint256",
              "name": "ciphertext",
              "type": "tuple"
            },
            {
              "internalType": "bytes[2][2]",
              "name": "signature",
              "type": "bytes[2][2]"
            }
          ],
          "internalType": "struct itUint256",
          "name": "a",
          "type": "tuple"
        },
        {
          "components": [
            {
              "components": [
                {
                  "components": [
                    {
                      "internalType": "ctUint64",
                      "name": "high",
                      "type": "uint256"
                    },
                    {
                      "internalType": "ctUint64",
                      "name": "low",
                      "type": "uint256"
                    }
                  ],
                  "internalType": "struct ctUint128",
                  "name": "high",
                  "type": "tuple"
                },
                {
                  "components": [
                    {
                      "internalType": "ctUint64",
                      "name": "high",
                      "type": "uint256"
                    },
                    {
                      "internalType": "ctUint64",
                      "name": "low",
                      "type": "uint256"
                    }
                  ],
                  "internalType": "struct ctUint128",
                  "name": "low",
                  "type": "tuple"
                }
              ],
              "internalType": "struct ctUint256",
              "name": "ciphertext",
              "type": "tuple"
            },
            {
              "internalType": "bytes[2][2]",
              "name": "signature",
              "type": "bytes[2][2]"
            }
          ],
          "internalType": "struct itUint256",
          "name": "b",
          "type": "tuple"
        },
        {
          "internalType": "uint256",
          "name": "callbackFeeLocalWei",
          "type": "uint256"
        }
      ],
      "name": "execMul256",
      "outputs": [],
      "stateMutability": "payable",
      "type": "function"
    },
    {
      "inputs": [
        {
          "components": [
            {
              "internalType": "ctBool",
              "name": "ciphertext",
              "type": "uint256"
            },
            {
              "internalType": "bytes",
              "name": "signature",
              "type": "bytes"
            }
          ],
          "internalType": "struct itBool",
          "name": "bit",
          "type": "tuple"
        },
        {
          "components": [
            {
              "components": [
                {
                  "components": [
                    {
                      "internalType": "ctUint64",
                      "name": "high",
                      "type": "uint256"
                    },
                    {
                      "internalType": "ctUint64",
                      "name": "low",
                      "type": "uint256"
                    }
                  ],
                  "internalType": "struct ctUint128",
                  "name": "high",
                  "type": "tuple"
                },
                {
                  "components": [
                    {
                      "internalType": "ctUint64",
                      "name": "high",
                      "type": "uint256"
                    },
                    {
                      "internalType": "ctUint64",
                      "name": "low",
                      "type": "uint256"
                    }
                  ],
                  "internalType": "struct ctUint128",
                  "name": "low",
                  "type": "tuple"
                }
              ],
              "internalType": "struct ctUint256",
              "name": "ciphertext",
              "type": "tuple"
            },
            {
              "internalType": "bytes[2][2]",
              "name": "signature",
              "type": "bytes[2][2]"
            }
          ],
          "internalType": "struct itUint256",
          "name": "a",
          "type": "tuple"
        },
        {
          "components": [
            {
              "components": [
                {
                  "components": [
                    {
                      "internalType": "ctUint64",
                      "name": "high",
                      "type": "uint256"
                    },
                    {
                      "internalType": "ctUint64",
                      "name": "low",
                      "type": "uint256"
                    }
                  ],
                  "internalType": "struct ctUint128",
                  "name": "high",
                  "type": "tuple"
                },
                {
                  "components": [
                    {
                      "internalType": "ctUint64",
                      "name": "high",
                      "type": "uint256"
                    },
                    {
                      "internalType": "ctUint64",
                      "name": "low",
                      "type": "uint256"
                    }
                  ],
                  "internalType": "struct ctUint128",
                  "name": "low",
                  "type": "tuple"
                }
              ],
              "internalType": "struct ctUint256",
              "name": "ciphertext",
              "type": "tuple"
            },
            {
              "internalType": "bytes[2][2]",
              "name": "signature",
              "type": "bytes[2][2]"
            }
          ],
          "internalType": "struct itUint256",
          "name": "b",
          "type": "tuple"
        },
        {
          "internalType": "uint256",
          "name": "callbackFeeLocalWei",
          "type": "uint256"
        }
      ],
      "name": "execMux256",
      "outputs": [],
      "stateMutability": "payable",
      "type": "function"
    },
    {
      "inputs": [
        {
          "components": [
            {
              "components": [
                {
                  "components": [
                    {
                      "internalType": "ctUint64",
                      "name": "high",
                      "type": "uint256"
                    },
                    {
                      "internalType": "ctUint64",
                      "name": "low",
                      "type": "uint256"
                    }
                  ],
                  "internalType": "struct ctUint128",
                  "name": "high",
                  "type": "tuple"
                },
                {
                  "components": [
                    {
                      "internalType": "ctUint64",
                      "name": "high",
                      "type": "uint256"
                    },
                    {
                      "internalType": "ctUint64",
                      "name": "low",
                      "type": "uint256"
                    }
                  ],
                  "internalType": "struct ctUint128",
                  "name": "low",
                  "type": "tuple"
                }
              ],
              "internalType": "struct ctUint256",
              "name": "ciphertext",
              "type": "tuple"
            },
            {
              "internalType": "bytes[2][2]",
              "name": "signature",
              "type": "bytes[2][2]"
            }
          ],
          "internalType": "struct itUint256",
          "name": "a",
          "type": "tuple"
        },
        {
          "components": [
            {
              "components": [
                {
                  "components": [
                    {
                      "internalType": "ctUint64",
                      "name": "high",
                      "type": "uint256"
                    },
                    {
                      "internalType": "ctUint64",
                      "name": "low",
                      "type": "uint256"
                    }
                  ],
                  "internalType": "struct ctUint128",
                  "name": "high",
                  "type": "tuple"
                },
                {
                  "components": [
                    {
                      "internalType": "ctUint64",
                      "name": "high",
                      "type": "uint256"
                    },
                    {
                      "internalType": "ctUint64",
                      "name": "low",
                      "type": "uint256"
                    }
                  ],
                  "internalType": "struct ctUint128",
                  "name": "low",
                  "type": "tuple"
                }
              ],
              "internalType": "struct ctUint256",
              "name": "ciphertext",
              "type": "tuple"
            },
            {
              "internalType": "bytes[2][2]",
              "name": "signature",
              "type": "bytes[2][2]"
            }
          ],
          "internalType": "struct itUint256",
          "name": "b",
          "type": "tuple"
        },
        {
          "internalType": "uint256",
          "name": "callbackFeeLocalWei",
          "type": "uint256"
        }
      ],
      "name": "execNe256",
      "outputs": [],
      "stateMutability": "payable",
      "type": "function"
    },
    {
      "inputs": [
        {
          "components": [
            {
              "components": [
                {
                  "components": [
                    {
                      "internalType": "ctUint64",
                      "name": "high",
                      "type": "uint256"
                    },
                    {
                      "internalType": "ctUint64",
                      "name": "low",
                      "type": "uint256"
                    }
                  ],
                  "internalType": "struct ctUint128",
                  "name": "high",
                  "type": "tuple"
                },
                {
                  "components": [
                    {
                      "internalType": "ctUint64",
                      "name": "high",
                      "type": "uint256"
                    },
                    {
                      "internalType": "ctUint64",
                      "name": "low",
                      "type": "uint256"
                    }
                  ],
                  "internalType": "struct ctUint128",
                  "name": "low",
                  "type": "tuple"
                }
              ],
              "internalType": "struct ctUint256",
              "name": "ciphertext",
              "type": "tuple"
            },
            {
              "internalType": "bytes[2][2]",
              "name": "signature",
              "type": "bytes[2][2]"
            }
          ],
          "internalType": "struct itUint256",
          "name": "a",
          "type": "tuple"
        },
        {
          "components": [
            {
              "components": [
                {
                  "components": [
                    {
                      "internalType": "ctUint64",
                      "name": "high",
                      "type": "uint256"
                    },
                    {
                      "internalType": "ctUint64",
                      "name": "low",
                      "type": "uint256"
                    }
                  ],
                  "internalType": "struct ctUint128",
                  "name": "high",
                  "type": "tuple"
                },
                {
                  "components": [
                    {
                      "internalType": "ctUint64",
                      "name": "high",
                      "type": "uint256"
                    },
                    {
                      "internalType": "ctUint64",
                      "name": "low",
                      "type": "uint256"
                    }
                  ],
                  "internalType": "struct ctUint128",
                  "name": "low",
                  "type": "tuple"
                }
              ],
              "internalType": "struct ctUint256",
              "name": "ciphertext",
              "type": "tuple"
            },
            {
              "internalType": "bytes[2][2]",
              "name": "signature",
              "type": "bytes[2][2]"
            }
          ],
          "internalType": "struct itUint256",
          "name": "b",
          "type": "tuple"
        },
        {
          "internalType": "uint256",
          "name": "callbackFeeLocalWei",
          "type": "uint256"
        }
      ],
      "name": "execOr256",
      "outputs": [],
      "stateMutability": "payable",
      "type": "function"
    },
    {
      "inputs": [
        {
          "internalType": "uint256",
          "name": "callbackFeeLocalWei",
          "type": "uint256"
        }
      ],
      "name": "execRand256",
      "outputs": [],
      "stateMutability": "payable",
      "type": "function"
    },
    {
      "inputs": [
        {
          "internalType": "uint8",
          "name": "numBits",
          "type": "uint8"
        },
        {
          "internalType": "uint256",
          "name": "callbackFeeLocalWei",
          "type": "uint256"
        }
      ],
      "name": "execRandBoundedBits256",
      "outputs": [],
      "stateMutability": "payable",
      "type": "function"
    },
    {
      "inputs": [
        {
          "components": [
            {
              "components": [
                {
                  "components": [
                    {
                      "internalType": "ctUint64",
                      "name": "high",
                      "type": "uint256"
                    },
                    {
                      "internalType": "ctUint64",
                      "name": "low",
                      "type": "uint256"
                    }
                  ],
                  "internalType": "struct ctUint128",
                  "name": "high",
                  "type": "tuple"
                },
                {
                  "components": [
                    {
                      "internalType": "ctUint64",
                      "name": "high",
                      "type": "uint256"
                    },
                    {
                      "internalType": "ctUint64",
                      "name": "low",
                      "type": "uint256"
                    }
                  ],
                  "internalType": "struct ctUint128",
                  "name": "low",
                  "type": "tuple"
                }
              ],
              "internalType": "struct ctUint256",
              "name": "ciphertext",
              "type": "tuple"
            },
            {
              "internalType": "bytes[2][2]",
              "name": "signature",
              "type": "bytes[2][2]"
            }
          ],
          "internalType": "struct itUint256",
          "name": "a",
          "type": "tuple"
        },
        {
          "internalType": "uint8",
          "name": "s",
          "type": "uint8"
        },
        {
          "internalType": "uint256",
          "name": "callbackFeeLocalWei",
          "type": "uint256"
        }
      ],
      "name": "execShl256",
      "outputs": [],
      "stateMutability": "payable",
      "type": "function"
    },
    {
      "inputs": [
        {
          "components": [
            {
              "components": [
                {
                  "components": [
                    {
                      "internalType": "ctUint64",
                      "name": "high",
                      "type": "uint256"
                    },
                    {
                      "internalType": "ctUint64",
                      "name": "low",
                      "type": "uint256"
                    }
                  ],
                  "internalType": "struct ctUint128",
                  "name": "high",
                  "type": "tuple"
                },
                {
                  "components": [
                    {
                      "internalType": "ctUint64",
                      "name": "high",
                      "type": "uint256"
                    },
                    {
                      "internalType": "ctUint64",
                      "name": "low",
                      "type": "uint256"
                    }
                  ],
                  "internalType": "struct ctUint128",
                  "name": "low",
                  "type": "tuple"
                }
              ],
              "internalType": "struct ctUint256",
              "name": "ciphertext",
              "type": "tuple"
            },
            {
              "internalType": "bytes[2][2]",
              "name": "signature",
              "type": "bytes[2][2]"
            }
          ],
          "internalType": "struct itUint256",
          "name": "a",
          "type": "tuple"
        },
        {
          "internalType": "uint8",
          "name": "s",
          "type": "uint8"
        },
        {
          "internalType": "uint256",
          "name": "callbackFeeLocalWei",
          "type": "uint256"
        }
      ],
      "name": "execShr256",
      "outputs": [],
      "stateMutability": "payable",
      "type": "function"
    },
    {
      "inputs": [
        {
          "components": [
            {
              "components": [
                {
                  "components": [
                    {
                      "internalType": "ctUint64",
                      "name": "high",
                      "type": "uint256"
                    },
                    {
                      "internalType": "ctUint64",
                      "name": "low",
                      "type": "uint256"
                    }
                  ],
                  "internalType": "struct ctUint128",
                  "name": "high",
                  "type": "tuple"
                },
                {
                  "components": [
                    {
                      "internalType": "ctUint64",
                      "name": "high",
                      "type": "uint256"
                    },
                    {
                      "internalType": "ctUint64",
                      "name": "low",
                      "type": "uint256"
                    }
                  ],
                  "internalType": "struct ctUint128",
                  "name": "low",
                  "type": "tuple"
                }
              ],
              "internalType": "struct ctUint256",
              "name": "ciphertext",
              "type": "tuple"
            },
            {
              "internalType": "bytes[2][2]",
              "name": "signature",
              "type": "bytes[2][2]"
            }
          ],
          "internalType": "struct itUint256",
          "name": "a",
          "type": "tuple"
        },
        {
          "components": [
            {
              "components": [
                {
                  "components": [
                    {
                      "internalType": "ctUint64",
                      "name": "high",
                      "type": "uint256"
                    },
                    {
                      "internalType": "ctUint64",
                      "name": "low",
                      "type": "uint256"
                    }
                  ],
                  "internalType": "struct ctUint128",
                  "name": "high",
                  "type": "tuple"
                },
                {
                  "components": [
                    {
                      "internalType": "ctUint64",
                      "name": "high",
                      "type": "uint256"
                    },
                    {
                      "internalType": "ctUint64",
                      "name": "low",
                      "type": "uint256"
                    }
                  ],
                  "internalType": "struct ctUint128",
                  "name": "low",
                  "type": "tuple"
                }
              ],
              "internalType": "struct ctUint256",
              "name": "ciphertext",
              "type": "tuple"
            },
            {
              "internalType": "bytes[2][2]",
              "name": "signature",
              "type": "bytes[2][2]"
            }
          ],
          "internalType": "struct itUint256",
          "name": "b",
          "type": "tuple"
        },
        {
          "internalType": "uint256",
          "name": "callbackFeeLocalWei",
          "type": "uint256"
        }
      ],
      "name": "execSub256",
      "outputs": [],
      "stateMutability": "payable",
      "type": "function"
    },
    {
      "inputs": [
        {
          "components": [
            {
              "components": [
                {
                  "components": [
                    {
                      "internalType": "ctUint64",
                      "name": "high",
                      "type": "uint256"
                    },
                    {
                      "internalType": "ctUint64",
                      "name": "low",
                      "type": "uint256"
                    }
                  ],
                  "internalType": "struct ctUint128",
                  "name": "high",
                  "type": "tuple"
                },
                {
                  "components": [
                    {
                      "internalType": "ctUint64",
                      "name": "high",
                      "type": "uint256"
                    },
                    {
                      "internalType": "ctUint64",
                      "name": "low",
                      "type": "uint256"
                    }
                  ],
                  "internalType": "struct ctUint128",
                  "name": "low",
                  "type": "tuple"
                }
              ],
              "internalType": "struct ctUint256",
              "name": "ciphertext",
              "type": "tuple"
            },
            {
              "internalType": "bytes[2][2]",
              "name": "signature",
              "type": "bytes[2][2]"
            }
          ],
          "internalType": "struct itUint256",
          "name": "a",
          "type": "tuple"
        },
        {
          "components": [
            {
              "components": [
                {
                  "components": [
                    {
                      "internalType": "ctUint64",
                      "name": "high",
                      "type": "uint256"
                    },
                    {
                      "internalType": "ctUint64",
                      "name": "low",
                      "type": "uint256"
                    }
                  ],
                  "internalType": "struct ctUint128",
                  "name": "high",
                  "type": "tuple"
                },
                {
                  "components": [
                    {
                      "internalType": "ctUint64",
                      "name": "high",
                      "type": "uint256"
                    },
                    {
                      "internalType": "ctUint64",
                      "name": "low",
                      "type": "uint256"
                    }
                  ],
                  "internalType": "struct ctUint128",
                  "name": "low",
                  "type": "tuple"
                }
              ],
              "internalType": "struct ctUint256",
              "name": "ciphertext",
              "type": "tuple"
            },
            {
              "internalType": "bytes[2][2]",
              "name": "signature",
              "type": "bytes[2][2]"
            }
          ],
          "internalType": "struct itUint256",
          "name": "b",
          "type": "tuple"
        },
        {
          "internalType": "uint256",
          "name": "callbackFeeLocalWei",
          "type": "uint256"
        }
      ],
      "name": "execXor256",
      "outputs": [],
      "stateMutability": "payable",
      "type": "function"
    },
    {
      "inputs": [],
      "name": "inbox",
      "outputs": [
        {
          "internalType": "contract IInbox",
          "name": "",
          "type": "address"
        }
      ],
      "stateMutability": "view",
      "type": "function"
    },
    {
      "inputs": [],
      "name": "lastRequestId",
      "outputs": [
        {
          "internalType": "bytes32",
          "name": "",
          "type": "bytes32"
        }
      ],
      "stateMutability": "view",
      "type": "function"
    },
    {
      "inputs": [],
      "name": "lastResult",
      "outputs": [
        {
          "internalType": "bytes",
          "name": "",
          "type": "bytes"
        }
      ],
      "stateMutability": "view",
      "type": "function"
    },
    {
      "inputs": [
        {
          "internalType": "bytes32",
          "name": "requestId",
          "type": "bytes32"
        }
      ],
      "name": "onDefaultMpcError",
      "outputs": [],
      "stateMutability": "nonpayable",
      "type": "function"
    },
    {
      "inputs": [],
      "name": "owner",
      "outputs": [
        {
          "internalType": "address",
          "name": "",
          "type": "address"
        }
      ],
      "stateMutability": "view",
      "type": "function"
    },
    {
      "inputs": [
        {
          "internalType": "bytes",
          "name": "data",
          "type": "bytes"
        }
      ],
      "name": "receivePod",
      "outputs": [],
      "stateMutability": "nonpayable",
      "type": "function"
    },
    {
      "inputs": [],
      "name": "renounceOwnership",
      "outputs": [],
      "stateMutability": "nonpayable",
      "type": "function"
    },
    {
      "inputs": [
        {
          "internalType": "address",
          "name": "newOwner",
          "type": "address"
        }
      ],
      "name": "transferOwnership",
      "outputs": [],
      "stateMutability": "nonpayable",
      "type": "function"
    },
    {
      "stateMutability": "payable",
      "type": "receive"
    }
  ],
  "bytecode": "0x6080604052600280546001600160a01b031916905562282b3460035534801561002757600080fd5b50604051611fd7380380611fd783398101604081905261004691610103565b3380808061006e57604051631e4fbdf760e01b81526000600482015260240160405180910390fd5b6100778161008f565b505050610089816100e160201b60201c565b50610133565b600180546001600160a01b038381166001600160a01b0319831681179093556040519116919082907f8be0079c531659141344cd1fd0a4f28419497f9722a3daafe3b4186f6b6457e090600090a35050565b600080546001600160a01b0319166001600160a01b0392909216919091179055565b60006020828403121561011557600080fd5b81516001600160a01b038116811461012c57600080fd5b9392505050565b611e95806101426000396000f3fe6080604052600436106101ba5760003560e01c8063af0e7b3c116100ec578063f49a383d1161008a578063f97109fa11610064578063f97109fa146103f9578063fa0d07fb1461040c578063fb0e722b1461041f578063fc2a88c31461043f57600080fd5b8063f49a383d146103c0578063f523e79b146103d3578063f7d2d53e146103e657600080fd5b8063d5864686116100c6578063d586468614610367578063d925e4641461037a578063f19576101461038d578063f2fde38b146103a057600080fd5b8063af0e7b3c14610314578063c07fd56e14610327578063c31614a41461034757600080fd5b806378e6811d1161015957806384bb6cad1161013357806384bb6cad146102955780638da5cb5b146102a857806398c13022146102df578063abcc11d8146102f257600080fd5b806378e6811d1461024f5780637cb0ffe51461026f5780637f8031821461028257600080fd5b80632109a3b3116101955780632109a3b314610201578063715018a61461021457806376d0617014610229578063782c7e591461023c57600080fd5b80622049ad146101c657806307e32d5d146101db578063160dae30146101ee57600080fd5b366101c157005b600080fd5b6101d96101d436600461149a565b610463565b005b6101d96101e936600461149a565b6104a0565b6101d96101fc366004611521565b6104d5565b6101d961020f36600461149a565b610502565b34801561022057600080fd5b506101d9610537565b6101d9610237366004611521565b61054b565b6101d961024a36600461149a565b610578565b34801561025b57600080fd5b506101d961026a36600461158f565b6105ad565b6101d961027d36600461149a565b61060a565b6101d96102903660046115bb565b61063f565b6101d96102a336600461149a565b610668565b3480156102b457600080fd5b506001546001600160a01b03165b6040516001600160a01b0390911681526020015b60405180910390f35b6101d96102ed3660046115d4565b61069d565b3480156102fe57600080fd5b506103076106e4565b6040516102d691906116c2565b6101d961032236600461149a565b610772565b34801561033357600080fd5b506101d96103423660046117c0565b6107a7565b34801561035357600080fd5b506101d96103623660046115bb565b6107e9565b6101d961037536600461149a565b6108cc565b6101d961038836600461149a565b610901565b6101d961039b36600461149a565b610936565b3480156103ac57600080fd5b506101d96103bb3660046117fc565b61096b565b6101d96103ce366004611817565b6109a9565b6101d96103e136600461149a565b6109d4565b6101d96103f436600461149a565b610a09565b6101d961040736600461149a565b610a3e565b6101d961041a36600461149a565b610a73565b34801561042b57600080fd5b506000546102c2906001600160a01b031681565b34801561044b57600080fd5b5061045560055481565b6040519081526020016102d6565b61046b610aa8565b61049861047784611872565b61048084611872565b3363603feab760e11b6330c5852960e21b3487610ac4565b600555505050565b6104a8610aa8565b6104986104b484611872565b6104bd84611872565b3363603feab760e11b6330c5852960e21b3487610ae9565b6104dd610aa8565b6104986104e984611872565b833363603feab760e11b6330c5852960e21b3487610b01565b61050a610aa8565b61049861051684611872565b61051f84611872565b3363603feab760e11b6330c5852960e21b3487610b1a565b61053f610b33565b6105496000610b60565b565b610553610aa8565b61049861055f84611872565b833363603feab760e11b6330c5852960e21b3487610bb2565b610580610aa8565b61049861058c84611872565b61059584611872565b3363603feab760e11b6330c5852960e21b3487610bcb565b6105b5610b33565b6001600160a01b038316156105e057600080546001600160a01b0319166001600160a01b0385161790555b600280546001600160a01b0319166001600160a01b0384161790556003819055505050565b505050565b610612610aa8565b61049861061e84611872565b61062784611872565b3363603feab760e11b6330c5852960e21b3487610be4565b610647610aa8565b6106623363603feab760e11b6330c5852960e21b3485610bfd565b60055550565b610670610aa8565b61049861067c84611872565b61068584611872565b3363603feab760e11b6330c5852960e21b3487610c1e565b6106a5610aa8565b6106db6106b1856119b8565b6106ba85611872565b6106c385611872565b3363603feab760e11b6330c5852960e21b3488610c37565b60055550505050565b600480546106f190611a07565b80601f016020809104026020016040519081016040528092919081815260200182805461071d90611a07565b801561076a5780601f1061073f5761010080835404028352916020019161076a565b820191906000526020600020905b81548152906001019060200180831161074d57829003601f168201915b505050505081565b61077a610aa8565b61049861078684611872565b61078f84611872565b3363603feab760e11b6330c5852960e21b3487610c55565b6000546001600160a01b031633146107d95760405163625bb43760e11b81523360048201526024015b60405180910390fd5b60046107e58282611a89565b5050565b6000546001600160a01b031633146108165760405163625bb43760e11b81523360048201526024016107d0565b60008054604051633d5c08e760e01b81526004810184905282916001600160a01b031690633d5c08e790602401600060405180830381865afa158015610860573d6000803e3d6000fd5b505050506040513d6000823e601f3d908101601f191682016040526108889190810190611b47565b915091507f619a7489bf8601fb5b4d4baa3ac966cc83cbb97ea0646e8cec620a75fdde73c48383836040516108bf93929190611bc9565b60405180910390a1505050565b6108d4610aa8565b6104986108e084611872565b6108e984611872565b3363603feab760e11b6330c5852960e21b3487610c6e565b610909610aa8565b61049861091584611872565b61091e84611872565b3363603feab760e11b6330c5852960e21b3487610c87565b61093e610aa8565b61049861094a84611872565b61095384611872565b3363603feab760e11b6330c5852960e21b3487610ca0565b610973610b33565b6001600160a01b03811661099d57604051631e4fbdf760e01b8152600060048201526024016107d0565b6109a681610b60565b50565b6109b1610aa8565b6109cd823363603feab760e11b6330c5852960e21b3486610cb9565b6005555050565b6109dc610aa8565b6104986109e884611872565b6109f184611872565b3363603feab760e11b6330c5852960e21b3487610cd3565b610a11610aa8565b610498610a1d84611872565b610a2684611872565b3363603feab760e11b6330c5852960e21b3487610cec565b610a46610aa8565b610498610a5284611872565b610a5b84611872565b3363603feab760e11b6330c5852960e21b3487610d05565b610a7b610aa8565b610498610a8784611872565b610a9084611872565b3363603feab760e11b6330c5852960e21b3487610d1e565b6040805160208101909152600081526004906109a69082611a89565b6000610add63982e635160e01b89898989898989610d33565b98975050505050505050565b6000610add62bb5baf60e21b89898989898989610d33565b6000610add63447a0aa760e01b89898989898989610d44565b6000610add633eb6470960e11b89898989898989610d33565b6001546001600160a01b031633146105495760405163118cdaa760e01b81523360048201526024016107d0565b600180546001600160a01b038381166001600160a01b0319831681179093556040519116919082907f8be0079c531659141344cd1fd0a4f28419497f9722a3daafe3b4186f6b6457e090600090a35050565b6000610add636d476ca160e11b89898989898989610d44565b6000610add638b32016160e01b89898989898989610d33565b6000610add6374e59f7d60e11b89898989898989610d33565b6000610c14610c0b87610d55565b86868686610d87565b9695505050505050565b6000610add63233d699f60e21b89898989898989610d33565b6000610c48610c0b8a8a8a8a610da9565b9998505050505050505050565b6000610add63139fc82b60e01b89898989898989610d33565b6000610add636e98564160e01b89898989898989610d33565b6000610add63800cc70360e01b89898989898989610d33565b6000610add633ad3faed60e01b89898989898989610d33565b6000610cc8610c0b8888610de9565b979650505050505050565b6000610add635ccfdcb160e11b89898989898989610d33565b6000610add63facc923360e01b89898989898989610d33565b6000610add63bcb1c8ab60e01b89898989898989610d33565b6000610add6342c2577b60e01b898989898989895b6000610c48610c0b8a8a8a8a610e1e565b6000610c48610c0b8a8a8a8a610e40565b610d5d611422565b610d81610d7c83610d76639fa2ef3360e01b6001610e61565b90610f97565b610fcf565b92915050565b600354600254600091610c1491859185916001600160a01b03168a8a8a61110b565b610db1611422565b610de0610d7c83610d7686610dda89818c610dd4631c2906e560e21b6004610e61565b9061127f565b906112b2565b95945050505050565b610df1611422565b610e17610d7c83610d7660ff8716610e11633433a73160e11b6002610e61565b906112e5565b9392505050565b610e26611422565b610de0610d7c83610d7686610dda89610dda8c6003610e61565b610e48611422565b610de0610d7c83610d768660ff16610e1189610dda8c60035b610e69611454565b60408051610100810182526001600160e01b03198516608082019081528251600081526020810190935260a082019290925290819060c08201856001600160401b03811115610eba57610eba6116d5565b604051908082528060200260200182016040528015610ee3578160200160208202803683370190505b508152602001856001600160401b03811115610f0157610f016116d5565b604051908082528060200260200182016040528015610f2a578160200160208202803683370190505b5090528152602001836001600160401b03811115610f4a57610f4a6116d5565b604051908082528060200260200182016040528015610f7d57816020015b6060815260200190600190039081610f685790505b508152602001600081526020016000815250905092915050565b610f9f611454565b604080516001600160a01b0384166020820152610e17918591016040516020818303038152906040526001611316565b610fd7611422565b600082604001516001600160401b03811115610ff557610ff56116d5565b6040519080825280601f01601f19166020018201604052801561101f576020820181803683370190505b5090506000805b84606001518110156110fe5760008560200151828151811061104a5761104a611be8565b60200260200101519050805160001b866000015160600151838151811061107357611073611be8565b60200260200101818152505060005b81518110156110e65781818151811061109d5761109d611be8565b01602001516001600160f81b031916856110b78387611bfe565b815181106110c7576110c7611be8565b60200101906001600160f81b031916908160001a905350600101611082565b5080516110f39084611bfe565b925050600101611026565b5050825160200152505190565b6000600187101561115e5760405162461bcd60e51b815260206004820152601860248201527f506f644c69623a2063616c6c6261636b20666565206d696e000000000000000060448201526064016107d0565b878711156111ae5760405162461bcd60e51b815260206004820152601e60248201527f506f644c69623a2063616c6c6261636b206578636565647320746f74616c000060448201526064016107d0565b874710156111f25760405162461bcd60e51b8152602060048201526011602482015270506f644c69623a20696e626f782066656560781b60448201526064016107d0565b60008054906101000a90046001600160a01b03166001600160a01b031663ba5814658988888888888e6040518863ffffffff1660e01b815260040161123c96959493929190611c5b565b60206040518083038185885af115801561125a573d6000803e3d6000fd5b50505050506040513d601f19601f82011682018060405250810190610add9190611d4a565b611287611454565b610e17838360405160200161129c9190611d63565b604051602081830303815290604052600a611316565b6112ba611454565b610e1783836040516020016112cf9190611d88565b6040516020818303038152906040526010611316565b6112ed611454565b610e17838360405160200161130491815260200190565b60405160208183030381529060405260005b61131e611454565b835160400151516060850151106113775760405162461bcd60e51b815260206004820152601a60248201527f4d7063416269436f6465633a20746f6f206d616e79206172677300000000000060448201526064016107d0565b81601181111561138957611389611e49565b60ff1660c01b8460000151604001518560600151815181106113ad576113ad611be8565b6001600160c01b0319909216602092830291909101820152840151606085015181518592919081106113e1576113e1611be8565b60200260200101819052508251846040018181516113ff9190611bfe565b90525060608401805160019190611417908390611bfe565b905250929392505050565b604051806080016040528060006001600160e01b03191681526020016060815260200160608152602001606081525090565b6040518060800160405280611467611422565b81526020016060815260200160008152602001600081525090565b600060a0828403121561149457600080fd5b50919050565b6000806000606084860312156114af57600080fd5b83356001600160401b038111156114c557600080fd5b6114d186828701611482565b93505060208401356001600160401b038111156114ed57600080fd5b6114f986828701611482565b93969395505050506040919091013590565b803560ff8116811461151c57600080fd5b919050565b60008060006060848603121561153657600080fd5b83356001600160401b0381111561154c57600080fd5b61155886828701611482565b9350506115676020850161150b565b929592945050506040919091013590565b80356001600160a01b038116811461151c57600080fd5b6000806000606084860312156115a457600080fd5b6115ad84611578565b925061156760208501611578565b6000602082840312156115cd57600080fd5b5035919050565b600080600080608085870312156115ea57600080fd5b84356001600160401b0381111561160057600080fd5b85016040818803121561161257600080fd5b935060208501356001600160401b0381111561162d57600080fd5b61163987828801611482565b93505060408501356001600160401b0381111561165557600080fd5b61166187828801611482565b949793965093946060013593505050565b60005b8381101561168d578181015183820152602001611675565b50506000910152565b600081518084526116ae816020860160208601611672565b601f01601f19169290920160200192915050565b602081526000610e176020830184611696565b634e487b7160e01b600052604160045260246000fd5b604080519081016001600160401b038111828210171561170d5761170d6116d5565b60405290565b604051601f8201601f191681016001600160401b038111828210171561173b5761173b6116d5565b604052919050565b60006001600160401b0382111561175c5761175c6116d5565b50601f01601f191660200190565b600082601f83011261177b57600080fd5b813561178e61178982611743565b611713565b8181528460208386010111156117a357600080fd5b816020850160208301376000918101602001919091529392505050565b6000602082840312156117d257600080fd5b81356001600160401b038111156117e857600080fd5b6117f48482850161176a565b949350505050565b60006020828403121561180e57600080fd5b610e1782611578565b6000806040838503121561182a57600080fd5b6118338361150b565b946020939093013593505050565b60006040828403121561185357600080fd5b61185b6116eb565b823581526020928301359281019290925250919050565b600081360360a081121561188557600080fd5b61188d6116eb565b608082121561189b57600080fd5b6118a36116eb565b91506118af3685611841565b82526118be3660408601611841565b60208301529081526080830135906001600160401b038211156118e057600080fd5b9083019036601f8301126118f357600080fd5b60406118fe81611713565b808285013681111561190f57600080fd5b855b818110156119a75780356001600160401b0381111561192f57600080fd5b870136601f82011261194057600080fd5b61194986611713565b808783013681111561195a57600080fd5b835b818110156119955780356001600160401b0381111561197a57600080fd5b6119863682880161176a565b8552506020938401930161195c565b50508652505060209384019301611911565b505060208401525090949350505050565b6000604082360312156119ca57600080fd5b6119d26116eb565b8235815260208301356001600160401b038111156119ef57600080fd5b6119fb3682860161176a565b60208301525092915050565b600181811c90821680611a1b57607f821691505b60208210810361149457634e487b7160e01b600052602260045260246000fd5b601f82111561060557806000526020600020601f840160051c81016020851015611a625750805b601f840160051c820191505b81811015611a825760008155600101611a6e565b5050505050565b81516001600160401b03811115611aa257611aa26116d5565b611ab681611ab08454611a07565b84611a3b565b6020601f821160018114611aea5760008315611ad25750848201515b600019600385901b1c1916600184901b178455611a82565b600084815260208120601f198516915b82811015611b1a5787850151825560209485019460019092019101611afa565b5084821015611b385786840151600019600387901b60f8161c191681555b50505050600190811b01905550565b60008060408385031215611b5a57600080fd5b8251915060208301516001600160401b03811115611b7757600080fd5b8301601f81018513611b8857600080fd5b8051611b9661178982611743565b818152866020838501011115611bab57600080fd5b611bbc826020830160208601611672565b8093505050509250929050565b838152826020820152606060408201526000610de06060830184611696565b634e487b7160e01b600052603260045260246000fd5b80820180821115610d8157634e487b7160e01b600052601160045260246000fd5b600081518084526020840193506020830160005b82811015611c51578151865260209586019590910190600101611c33565b5093949350505050565b86815260018060a01b038616602082015260c0604082015263ffffffff60e01b85511660c082015260006020860151608060e0840152611c9f610140840182611696565b604088015184820360bf190161010086015280518083526020918201935060009291909101905b80831015611cf25783516001600160c01b03191682526020938401936001939093019290910190611cc6565b50606089015185820360bf19016101208701529250611d118184611c1f565b9350505050611d2c60608301866001600160e01b0319169052565b6001600160e01b031993909316608082015260a00152949350505050565b600060208284031215611d5c57600080fd5b5051919050565b6020815281516020820152600060208301516040808401526117f46060840182611696565b60208152600060c082018351611dac60208501825180518252602090810151910152565b60200151611dc7606085018280518252602090810151910152565b50602084015160a08481015261010084019160005b6002811015611e3e5785840360bf190182528251846040810160005b6002811015611e26578782038352611e11828551611696565b60209485019493909301929150600101611df8565b50955050506020928301929190910190600101611ddc565b509195945050505050565b634e487b7160e01b600052602160045260246000fdfea2646970667358221220f57f85ef7061bf0d5c80706419f2c2d6f171127625af70280d0558ca8cfade1764736f6c634300081a0033",
  "linkReferences": {},
  "deployedLinkReferences": {},
  "immutableReferences": {},
  "inputSourceName": "project/contracts/examples/pod/PodTest256.sol",
  "buildInfoId": "solc-0_8_26-fe1a4e4a505966a69217682120b0629c10751bbb"
}