{
  "_format": "hh3-artifact-1",
  "contractName": "PErc20Coti",
  "sourceName": "contracts/examples/perc20/PErc20Coti.sol",
  "abi": [
    {
      "inputs": [
        {
          "internalType": "address",
          "name": "_inbox",
          "type": "address"
        }
      ],
      "stateMutability": "nonpayable",
      "type": "constructor"
    },
    {
      "inputs": [
        {
          "internalType": "address",
          "name": "caller",
          "type": "address"
        }
      ],
      "name": "OnlyInbox",
      "type": "error"
    },
    {
      "inputs": [
        {
          "internalType": "bytes32",
          "name": "",
          "type": "bytes32"
        }
      ],
      "name": "balanceOf",
      "outputs": [
        {
          "internalType": "ctUint64",
          "name": "",
          "type": "uint256"
        }
      ],
      "stateMutability": "view",
      "type": "function"
    },
    {
      "inputs": [],
      "name": "inbox",
      "outputs": [
        {
          "internalType": "contract IInbox",
          "name": "",
          "type": "address"
        }
      ],
      "stateMutability": "view",
      "type": "function"
    },
    {
      "inputs": [
        {
          "internalType": "address",
          "name": "from",
          "type": "address"
        },
        {
          "components": [
            {
              "components": [
                {
                  "internalType": "gtUint64",
                  "name": "high",
                  "type": "uint256"
                },
                {
                  "internalType": "gtUint64",
                  "name": "low",
                  "type": "uint256"
                }
              ],
              "internalType": "struct gtUint128",
              "name": "high",
              "type": "tuple"
            },
            {
              "components": [
                {
                  "internalType": "gtUint64",
                  "name": "high",
                  "type": "uint256"
                },
                {
                  "internalType": "gtUint64",
                  "name": "low",
                  "type": "uint256"
                }
              ],
              "internalType": "struct gtUint128",
              "name": "low",
              "type": "tuple"
            }
          ],
          "internalType": "struct gtUint256",
          "name": "to",
          "type": "tuple"
        },
        {
          "internalType": "gtUint64",
          "name": "amount",
          "type": "uint256"
        }
      ],
      "name": "transferFrom",
      "outputs": [],
      "stateMutability": "nonpayable",
      "type": "function"
    }
  ],
  "bytecode": "0x608060405234801561001057600080fd5b5060405161096438038061096483398101604081905261002f91610154565b600080546001600160a01b0319166001600160a01b0383161790556000610058620f42406100a3565b905061006381610122565b604080513360208201526001916000910160405160208183030381529060405280519060200120815260200190815260200160002081905550505061019d565b6040516306cdb05b60e51b8152600160fa1b60048201526001600160401b038216602482015260009060649063d9b60b60906044015b6020604051808303816000875af11580156100f8573d6000803e3d6000fd5b505050506040513d601f19601f8201168201806040525081019061011c9190610184565b92915050565b6040516362864e0160e11b8152600160fa1b60048201526024810182905260009060649063c50c9c02906044016100d9565b60006020828403121561016657600080fd5b81516001600160a01b038116811461017d57600080fd5b9392505050565b60006020828403121561019657600080fd5b5051919050565b6107b8806101ac6000396000f3fe608060405234801561001057600080fd5b50600436106100415760003560e01c8063080a96d0146100465780636c7f15421461005b578063fb0e722b1461008e575b600080fd5b6100596100543660046105b4565b6100b9565b005b61007b61006936600461060a565b60016020526000908152604090205481565b6040519081526020015b60405180910390f35b6000546100a1906001600160a01b031681565b6040516001600160a01b039091168152602001610085565b6000546001600160a01b031633146100ea5760405163625bb43760e11b815233600482015260240160405180910390fd5b604080516001600160a01b0385166020808301919091528251808303820181529183019092528051910120600061012e6101293686900386018661068b565b6102db565b604080516001600160a01b03831660208201529192506000910160408051601f19818403018152918152815160209283012060008681526001909352908220549092509081900361018e5761018b6101866000610320565b6103a0565b90505b600082815260016020526040812054908190036101b5576101b26101866000610320565b90505b60006101c0836103e2565b905060006101cd836103e2565b905060006101db838a6103f2565b905060006101e9838b610488565b90506101f4826103a0565b60008a81526001602052604090205561020c816103a0565b600088815260016020526040812091909155610228838e61049d565b90506000610236838b61049d565b60005460408051602081018f9052908101859052606081018c9052608081018390529192506001600160a01b03169063a83b59639060a0016040516020818303038152906040526040518263ffffffff1660e01b81526004016102999190610712565b600060405180830381600087803b1580156102b357600080fd5b505af11580156102c7573d6000803e3d6000fd5b505050505050505050505050505050505050565b6000806102eb83600001516104f7565b905060006102fc84602001516104f7565b9050806001600160801b03166080836001600160801b0316901b1792505050919050565b6040516306cdb05b60e51b8152600160fa1b600482015267ffffffffffffffff8216602482015260009060649063d9b60b60906044015b6020604051808303816000875af1158015610376573d6000803e3d6000fd5b505050506040513d601f19601f8201168201806040525081019061039a919061073b565b92915050565b6000606463c50c9c0260045b60f81b846040518363ffffffff1660e01b81526004016103579291906001600160f81b0319929092168252602082015260400190565b6000606463d2c135e560046103ac565b6000606463371d1bf261040760048085610547565b6040516001600160e01b031960e084901b1681526001600160e81b0319909116600482015260248101869052604481018590526064015b6020604051808303816000875af115801561045d573d6000803e3d6000fd5b505050506040513d601f19601f82011682018060405250810190610481919061073b565b9392505050565b60006064638c5d015061040760048085610547565b60408051606083901b6bffffffffffffffffffffffff1916602082015281516014818303018152603482019283905263078de1cd60e31b909252600091606491633c6f0e689161043e91600160fa1b918891603801610754565b60008061050783600001516105a4565b9050600061051884602001516105a4565b90508067ffffffffffffffff1660408367ffffffffffffffff166001600160801b0316901b1792505050919050565b600081600281111561055b5761055b610725565b60ff16600884600481111561057257610572610725565b61ffff16901b61ffff16601086600481111561059057610590610725565b62ffffff16901b171760e81b949350505050565b60006064630cfed56160046103ac565b600080600083850360c08112156105ca57600080fd5b84356001600160a01b03811681146105e157600080fd5b93506080601f19820112156105f557600080fd5b50919460208401945060a09093013592915050565b60006020828403121561061c57600080fd5b5035919050565b6040805190810167ffffffffffffffff8111828210171561065457634e487b7160e01b600052604160045260246000fd5b60405290565b60006040828403121561066c57600080fd5b610674610623565b823581526020928301359281019290925250919050565b6000608082840312801561069e57600080fd5b506106a7610623565b6106b1848461065a565b81526106c0846040850161065a565b60208201529392505050565b6000815180845260005b818110156106f2576020818501810151868301820152016106d6565b506000602082860101526020601f19601f83011685010191505092915050565b60208152600061048160208301846106cc565b634e487b7160e01b600052602160045260246000fd5b60006020828403121561074d57600080fd5b5051919050565b60ff60f81b8416815282602082015260606040820152600061077960608301846106cc565b9594505050505056fea2646970667358221220ada7153aa9bb01c03961c051a17241752eeaeb6bd6c9365c89341484a927b32e64736f6c634300081a0033",
  "linkReferences": {},
  "deployedLinkReferences": {},
  "immutableReferences": {},
  "inputSourceName": "project/contracts/examples/perc20/PErc20Coti.sol",
  "buildInfoId": "solc-0_8_26-fe1a4e4a505966a69217682120b0629c10751bbb"
}