{
  "_format": "hh3-artifact-1",
  "contractName": "PodTest64",
  "sourceName": "contracts/examples/pod/PodTest64.sol",
  "abi": [
    {
      "inputs": [
        {
          "internalType": "address",
          "name": "_inbox",
          "type": "address"
        }
      ],
      "stateMutability": "nonpayable",
      "type": "constructor"
    },
    {
      "inputs": [
        {
          "internalType": "address",
          "name": "caller",
          "type": "address"
        }
      ],
      "name": "OnlyInbox",
      "type": "error"
    },
    {
      "inputs": [
        {
          "internalType": "address",
          "name": "owner",
          "type": "address"
        }
      ],
      "name": "OwnableInvalidOwner",
      "type": "error"
    },
    {
      "inputs": [
        {
          "internalType": "address",
          "name": "account",
          "type": "address"
        }
      ],
      "name": "OwnableUnauthorizedAccount",
      "type": "error"
    },
    {
      "anonymous": false,
      "inputs": [
        {
          "indexed": false,
          "internalType": "bytes32",
          "name": "requestId",
          "type": "bytes32"
        },
        {
          "indexed": false,
          "internalType": "uint256",
          "name": "code",
          "type": "uint256"
        },
        {
          "indexed": false,
          "internalType": "string",
          "name": "message",
          "type": "string"
        }
      ],
      "name": "ErrorRemoteCall",
      "type": "event"
    },
    {
      "anonymous": false,
      "inputs": [
        {
          "indexed": true,
          "internalType": "address",
          "name": "previousOwner",
          "type": "address"
        },
        {
          "indexed": true,
          "internalType": "address",
          "name": "newOwner",
          "type": "address"
        }
      ],
      "name": "OwnershipTransferred",
      "type": "event"
    },
    {
      "inputs": [
        {
          "internalType": "address",
          "name": "inbox_",
          "type": "address"
        },
        {
          "internalType": "address",
          "name": "mpcExecutor_",
          "type": "address"
        },
        {
          "internalType": "uint256",
          "name": "cotiChainId_",
          "type": "uint256"
        }
      ],
      "name": "configure",
      "outputs": [],
      "stateMutability": "nonpayable",
      "type": "function"
    },
    {
      "inputs": [
        {
          "components": [
            {
              "internalType": "ctUint64",
              "name": "ciphertext",
              "type": "uint256"
            },
            {
              "internalType": "bytes",
              "name": "signature",
              "type": "bytes"
            }
          ],
          "internalType": "struct itUint64",
          "name": "a",
          "type": "tuple"
        },
        {
          "components": [
            {
              "internalType": "ctUint64",
              "name": "ciphertext",
              "type": "uint256"
            },
            {
              "internalType": "bytes",
              "name": "signature",
              "type": "bytes"
            }
          ],
          "internalType": "struct itUint64",
          "name": "b",
          "type": "tuple"
        },
        {
          "internalType": "uint256",
          "name": "callbackFeeLocalWei",
          "type": "uint256"
        }
      ],
      "name": "execAdd64",
      "outputs": [],
      "stateMutability": "payable",
      "type": "function"
    },
    {
      "inputs": [
        {
          "components": [
            {
              "internalType": "ctUint64",
              "name": "ciphertext",
              "type": "uint256"
            },
            {
              "internalType": "bytes",
              "name": "signature",
              "type": "bytes"
            }
          ],
          "internalType": "struct itUint64",
          "name": "a",
          "type": "tuple"
        },
        {
          "components": [
            {
              "internalType": "ctUint64",
              "name": "ciphertext",
              "type": "uint256"
            },
            {
              "internalType": "bytes",
              "name": "signature",
              "type": "bytes"
            }
          ],
          "internalType": "struct itUint64",
          "name": "b",
          "type": "tuple"
        },
        {
          "internalType": "uint256",
          "name": "callbackFeeLocalWei",
          "type": "uint256"
        }
      ],
      "name": "execAnd64",
      "outputs": [],
      "stateMutability": "payable",
      "type": "function"
    },
    {
      "inputs": [
        {
          "components": [
            {
              "internalType": "ctUint64",
              "name": "ciphertext",
              "type": "uint256"
            },
            {
              "internalType": "bytes",
              "name": "signature",
              "type": "bytes"
            }
          ],
          "internalType": "struct itUint64",
          "name": "a",
          "type": "tuple"
        },
        {
          "components": [
            {
              "internalType": "ctUint64",
              "name": "ciphertext",
              "type": "uint256"
            },
            {
              "internalType": "bytes",
              "name": "signature",
              "type": "bytes"
            }
          ],
          "internalType": "struct itUint64",
          "name": "b",
          "type": "tuple"
        },
        {
          "internalType": "uint256",
          "name": "callbackFeeLocalWei",
          "type": "uint256"
        }
      ],
      "name": "execDiv64",
      "outputs": [],
      "stateMutability": "payable",
      "type": "function"
    },
    {
      "inputs": [
        {
          "components": [
            {
              "internalType": "ctUint64",
              "name": "ciphertext",
              "type": "uint256"
            },
            {
              "internalType": "bytes",
              "name": "signature",
              "type": "bytes"
            }
          ],
          "internalType": "struct itUint64",
          "name": "a",
          "type": "tuple"
        },
        {
          "components": [
            {
              "internalType": "ctUint64",
              "name": "ciphertext",
              "type": "uint256"
            },
            {
              "internalType": "bytes",
              "name": "signature",
              "type": "bytes"
            }
          ],
          "internalType": "struct itUint64",
          "name": "b",
          "type": "tuple"
        },
        {
          "internalType": "uint256",
          "name": "callbackFeeLocalWei",
          "type": "uint256"
        }
      ],
      "name": "execEq64",
      "outputs": [],
      "stateMutability": "payable",
      "type": "function"
    },
    {
      "inputs": [
        {
          "components": [
            {
              "internalType": "ctUint64",
              "name": "ciphertext",
              "type": "uint256"
            },
            {
              "internalType": "bytes",
              "name": "signature",
              "type": "bytes"
            }
          ],
          "internalType": "struct itUint64",
          "name": "a",
          "type": "tuple"
        },
        {
          "components": [
            {
              "internalType": "ctUint64",
              "name": "ciphertext",
              "type": "uint256"
            },
            {
              "internalType": "bytes",
              "name": "signature",
              "type": "bytes"
            }
          ],
          "internalType": "struct itUint64",
          "name": "b",
          "type": "tuple"
        },
        {
          "internalType": "uint256",
          "name": "callbackFeeLocalWei",
          "type": "uint256"
        }
      ],
      "name": "execGe64",
      "outputs": [],
      "stateMutability": "payable",
      "type": "function"
    },
    {
      "inputs": [
        {
          "components": [
            {
              "internalType": "ctUint64",
              "name": "ciphertext",
              "type": "uint256"
            },
            {
              "internalType": "bytes",
              "name": "signature",
              "type": "bytes"
            }
          ],
          "internalType": "struct itUint64",
          "name": "a",
          "type": "tuple"
        },
        {
          "components": [
            {
              "internalType": "ctUint64",
              "name": "ciphertext",
              "type": "uint256"
            },
            {
              "internalType": "bytes",
              "name": "signature",
              "type": "bytes"
            }
          ],
          "internalType": "struct itUint64",
          "name": "b",
          "type": "tuple"
        },
        {
          "internalType": "uint256",
          "name": "callbackFeeLocalWei",
          "type": "uint256"
        }
      ],
      "name": "execGt64",
      "outputs": [],
      "stateMutability": "payable",
      "type": "function"
    },
    {
      "inputs": [
        {
          "components": [
            {
              "internalType": "ctUint64",
              "name": "ciphertext",
              "type": "uint256"
            },
            {
              "internalType": "bytes",
              "name": "signature",
              "type": "bytes"
            }
          ],
          "internalType": "struct itUint64",
          "name": "a",
          "type": "tuple"
        },
        {
          "components": [
            {
              "internalType": "ctUint64",
              "name": "ciphertext",
              "type": "uint256"
            },
            {
              "internalType": "bytes",
              "name": "signature",
              "type": "bytes"
            }
          ],
          "internalType": "struct itUint64",
          "name": "b",
          "type": "tuple"
        },
        {
          "internalType": "uint256",
          "name": "callbackFeeLocalWei",
          "type": "uint256"
        }
      ],
      "name": "execLe64",
      "outputs": [],
      "stateMutability": "payable",
      "type": "function"
    },
    {
      "inputs": [
        {
          "components": [
            {
              "internalType": "ctUint64",
              "name": "ciphertext",
              "type": "uint256"
            },
            {
              "internalType": "bytes",
              "name": "signature",
              "type": "bytes"
            }
          ],
          "internalType": "struct itUint64",
          "name": "a",
          "type": "tuple"
        },
        {
          "components": [
            {
              "internalType": "ctUint64",
              "name": "ciphertext",
              "type": "uint256"
            },
            {
              "internalType": "bytes",
              "name": "signature",
              "type": "bytes"
            }
          ],
          "internalType": "struct itUint64",
          "name": "b",
          "type": "tuple"
        },
        {
          "internalType": "uint256",
          "name": "callbackFeeLocalWei",
          "type": "uint256"
        }
      ],
      "name": "execLt64",
      "outputs": [],
      "stateMutability": "payable",
      "type": "function"
    },
    {
      "inputs": [
        {
          "components": [
            {
              "internalType": "ctUint64",
              "name": "ciphertext",
              "type": "uint256"
            },
            {
              "internalType": "bytes",
              "name": "signature",
              "type": "bytes"
            }
          ],
          "internalType": "struct itUint64",
          "name": "a",
          "type": "tuple"
        },
        {
          "components": [
            {
              "internalType": "ctUint64",
              "name": "ciphertext",
              "type": "uint256"
            },
            {
              "internalType": "bytes",
              "name": "signature",
              "type": "bytes"
            }
          ],
          "internalType": "struct itUint64",
          "name": "b",
          "type": "tuple"
        },
        {
          "internalType": "uint256",
          "name": "callbackFeeLocalWei",
          "type": "uint256"
        }
      ],
      "name": "execMax64",
      "outputs": [],
      "stateMutability": "payable",
      "type": "function"
    },
    {
      "inputs": [
        {
          "components": [
            {
              "internalType": "ctUint64",
              "name": "ciphertext",
              "type": "uint256"
            },
            {
              "internalType": "bytes",
              "name": "signature",
              "type": "bytes"
            }
          ],
          "internalType": "struct itUint64",
          "name": "a",
          "type": "tuple"
        },
        {
          "components": [
            {
              "internalType": "ctUint64",
              "name": "ciphertext",
              "type": "uint256"
            },
            {
              "internalType": "bytes",
              "name": "signature",
              "type": "bytes"
            }
          ],
          "internalType": "struct itUint64",
          "name": "b",
          "type": "tuple"
        },
        {
          "internalType": "uint256",
          "name": "callbackFeeLocalWei",
          "type": "uint256"
        }
      ],
      "name": "execMin64",
      "outputs": [],
      "stateMutability": "payable",
      "type": "function"
    },
    {
      "inputs": [
        {
          "components": [
            {
              "internalType": "ctUint64",
              "name": "ciphertext",
              "type": "uint256"
            },
            {
              "internalType": "bytes",
              "name": "signature",
              "type": "bytes"
            }
          ],
          "internalType": "struct itUint64",
          "name": "a",
          "type": "tuple"
        },
        {
          "components": [
            {
              "internalType": "ctUint64",
              "name": "ciphertext",
              "type": "uint256"
            },
            {
              "internalType": "bytes",
              "name": "signature",
              "type": "bytes"
            }
          ],
          "internalType": "struct itUint64",
          "name": "b",
          "type": "tuple"
        },
        {
          "internalType": "uint256",
          "name": "callbackFeeLocalWei",
          "type": "uint256"
        }
      ],
      "name": "execMul64",
      "outputs": [],
      "stateMutability": "payable",
      "type": "function"
    },
    {
      "inputs": [
        {
          "components": [
            {
              "internalType": "ctBool",
              "name": "ciphertext",
              "type": "uint256"
            },
            {
              "internalType": "bytes",
              "name": "signature",
              "type": "bytes"
            }
          ],
          "internalType": "struct itBool",
          "name": "bit",
          "type": "tuple"
        },
        {
          "components": [
            {
              "internalType": "ctUint64",
              "name": "ciphertext",
              "type": "uint256"
            },
            {
              "internalType": "bytes",
              "name": "signature",
              "type": "bytes"
            }
          ],
          "internalType": "struct itUint64",
          "name": "a",
          "type": "tuple"
        },
        {
          "components": [
            {
              "internalType": "ctUint64",
              "name": "ciphertext",
              "type": "uint256"
            },
            {
              "internalType": "bytes",
              "name": "signature",
              "type": "bytes"
            }
          ],
          "internalType": "struct itUint64",
          "name": "b",
          "type": "tuple"
        },
        {
          "internalType": "uint256",
          "name": "callbackFeeLocalWei",
          "type": "uint256"
        }
      ],
      "name": "execMux64",
      "outputs": [],
      "stateMutability": "payable",
      "type": "function"
    },
    {
      "inputs": [
        {
          "components": [
            {
              "internalType": "ctUint64",
              "name": "ciphertext",
              "type": "uint256"
            },
            {
              "internalType": "bytes",
              "name": "signature",
              "type": "bytes"
            }
          ],
          "internalType": "struct itUint64",
          "name": "a",
          "type": "tuple"
        },
        {
          "components": [
            {
              "internalType": "ctUint64",
              "name": "ciphertext",
              "type": "uint256"
            },
            {
              "internalType": "bytes",
              "name": "signature",
              "type": "bytes"
            }
          ],
          "internalType": "struct itUint64",
          "name": "b",
          "type": "tuple"
        },
        {
          "internalType": "uint256",
          "name": "callbackFeeLocalWei",
          "type": "uint256"
        }
      ],
      "name": "execNe64",
      "outputs": [],
      "stateMutability": "payable",
      "type": "function"
    },
    {
      "inputs": [
        {
          "components": [
            {
              "internalType": "ctUint64",
              "name": "ciphertext",
              "type": "uint256"
            },
            {
              "internalType": "bytes",
              "name": "signature",
              "type": "bytes"
            }
          ],
          "internalType": "struct itUint64",
          "name": "a",
          "type": "tuple"
        },
        {
          "components": [
            {
              "internalType": "ctUint64",
              "name": "ciphertext",
              "type": "uint256"
            },
            {
              "internalType": "bytes",
              "name": "signature",
              "type": "bytes"
            }
          ],
          "internalType": "struct itUint64",
          "name": "b",
          "type": "tuple"
        },
        {
          "internalType": "uint256",
          "name": "callbackFeeLocalWei",
          "type": "uint256"
        }
      ],
      "name": "execOr64",
      "outputs": [],
      "stateMutability": "payable",
      "type": "function"
    },
    {
      "inputs": [
        {
          "internalType": "uint256",
          "name": "callbackFeeLocalWei",
          "type": "uint256"
        }
      ],
      "name": "execRand64",
      "outputs": [],
      "stateMutability": "payable",
      "type": "function"
    },
    {
      "inputs": [
        {
          "internalType": "uint8",
          "name": "numBits",
          "type": "uint8"
        },
        {
          "internalType": "uint256",
          "name": "callbackFeeLocalWei",
          "type": "uint256"
        }
      ],
      "name": "execRandBoundedBits64",
      "outputs": [],
      "stateMutability": "payable",
      "type": "function"
    },
    {
      "inputs": [
        {
          "components": [
            {
              "internalType": "ctUint64",
              "name": "ciphertext",
              "type": "uint256"
            },
            {
              "internalType": "bytes",
              "name": "signature",
              "type": "bytes"
            }
          ],
          "internalType": "struct itUint64",
          "name": "a",
          "type": "tuple"
        },
        {
          "components": [
            {
              "internalType": "ctUint64",
              "name": "ciphertext",
              "type": "uint256"
            },
            {
              "internalType": "bytes",
              "name": "signature",
              "type": "bytes"
            }
          ],
          "internalType": "struct itUint64",
          "name": "b",
          "type": "tuple"
        },
        {
          "internalType": "uint256",
          "name": "callbackFeeLocalWei",
          "type": "uint256"
        }
      ],
      "name": "execRem64",
      "outputs": [],
      "stateMutability": "payable",
      "type": "function"
    },
    {
      "inputs": [
        {
          "components": [
            {
              "internalType": "ctUint64",
              "name": "ciphertext",
              "type": "uint256"
            },
            {
              "internalType": "bytes",
              "name": "signature",
              "type": "bytes"
            }
          ],
          "internalType": "struct itUint64",
          "name": "a",
          "type": "tuple"
        },
        {
          "internalType": "uint8",
          "name": "s",
          "type": "uint8"
        },
        {
          "internalType": "uint256",
          "name": "callbackFeeLocalWei",
          "type": "uint256"
        }
      ],
      "name": "execShl64",
      "outputs": [],
      "stateMutability": "payable",
      "type": "function"
    },
    {
      "inputs": [
        {
          "components": [
            {
              "internalType": "ctUint64",
              "name": "ciphertext",
              "type": "uint256"
            },
            {
              "internalType": "bytes",
              "name": "signature",
              "type": "bytes"
            }
          ],
          "internalType": "struct itUint64",
          "name": "a",
          "type": "tuple"
        },
        {
          "internalType": "uint8",
          "name": "s",
          "type": "uint8"
        },
        {
          "internalType": "uint256",
          "name": "callbackFeeLocalWei",
          "type": "uint256"
        }
      ],
      "name": "execShr64",
      "outputs": [],
      "stateMutability": "payable",
      "type": "function"
    },
    {
      "inputs": [
        {
          "components": [
            {
              "internalType": "ctUint64",
              "name": "ciphertext",
              "type": "uint256"
            },
            {
              "internalType": "bytes",
              "name": "signature",
              "type": "bytes"
            }
          ],
          "internalType": "struct itUint64",
          "name": "a",
          "type": "tuple"
        },
        {
          "components": [
            {
              "internalType": "ctUint64",
              "name": "ciphertext",
              "type": "uint256"
            },
            {
              "internalType": "bytes",
              "name": "signature",
              "type": "bytes"
            }
          ],
          "internalType": "struct itUint64",
          "name": "b",
          "type": "tuple"
        },
        {
          "internalType": "uint256",
          "name": "callbackFeeLocalWei",
          "type": "uint256"
        }
      ],
      "name": "execSub64",
      "outputs": [],
      "stateMutability": "payable",
      "type": "function"
    },
    {
      "inputs": [
        {
          "components": [
            {
              "internalType": "ctUint64",
              "name": "ciphertext",
              "type": "uint256"
            },
            {
              "internalType": "bytes",
              "name": "signature",
              "type": "bytes"
            }
          ],
          "internalType": "struct itUint64",
          "name": "a",
          "type": "tuple"
        },
        {
          "components": [
            {
              "internalType": "ctUint64",
              "name": "ciphertext",
              "type": "uint256"
            },
            {
              "internalType": "bytes",
              "name": "signature",
              "type": "bytes"
            }
          ],
          "internalType": "struct itUint64",
          "name": "b",
          "type": "tuple"
        },
        {
          "internalType": "uint256",
          "name": "callbackFeeLocalWei",
          "type": "uint256"
        }
      ],
      "name": "execXor64",
      "outputs": [],
      "stateMutability": "payable",
      "type": "function"
    },
    {
      "inputs": [],
      "name": "inbox",
      "outputs": [
        {
          "internalType": "contract IInbox",
          "name": "",
          "type": "address"
        }
      ],
      "stateMutability": "view",
      "type": "function"
    },
    {
      "inputs": [],
      "name": "lastRequestId",
      "outputs": [
        {
          "internalType": "bytes32",
          "name": "",
          "type": "bytes32"
        }
      ],
      "stateMutability": "view",
      "type": "function"
    },
    {
      "inputs": [],
      "name": "lastResult",
      "outputs": [
        {
          "internalType": "bytes",
          "name": "",
          "type": "bytes"
        }
      ],
      "stateMutability": "view",
      "type": "function"
    },
    {
      "inputs": [
        {
          "internalType": "bytes32",
          "name": "requestId",
          "type": "bytes32"
        }
      ],
      "name": "onDefaultMpcError",
      "outputs": [],
      "stateMutability": "nonpayable",
      "type": "function"
    },
    {
      "inputs": [],
      "name": "owner",
      "outputs": [
        {
          "internalType": "address",
          "name": "",
          "type": "address"
        }
      ],
      "stateMutability": "view",
      "type": "function"
    },
    {
      "inputs": [
        {
          "internalType": "bytes",
          "name": "data",
          "type": "bytes"
        }
      ],
      "name": "receivePod",
      "outputs": [],
      "stateMutability": "nonpayable",
      "type": "function"
    },
    {
      "inputs": [],
      "name": "renounceOwnership",
      "outputs": [],
      "stateMutability": "nonpayable",
      "type": "function"
    },
    {
      "inputs": [
        {
          "internalType": "address",
          "name": "newOwner",
          "type": "address"
        }
      ],
      "name": "transferOwnership",
      "outputs": [],
      "stateMutability": "nonpayable",
      "type": "function"
    },
    {
      "stateMutability": "payable",
      "type": "receive"
    }
  ],
  "bytecode": "0x6080604052600280546001600160a01b031916905562282b3460035534801561002757600080fd5b50604051611e89380380611e8983398101604081905261004691610103565b3380808061006e57604051631e4fbdf760e01b81526000600482015260240160405180910390fd5b6100778161008f565b505050610089816100e160201b60201c565b50610133565b600180546001600160a01b038381166001600160a01b0319831681179093556040519116919082907f8be0079c531659141344cd1fd0a4f28419497f9722a3daafe3b4186f6b6457e090600090a35050565b600080546001600160a01b0319166001600160a01b0392909216919091179055565b60006020828403121561011557600080fd5b81516001600160a01b038116811461012c57600080fd5b9392505050565b611d47806101426000396000f3fe6080604052600436106101d15760003560e01c8063978cb13d116100f7578063d554a14c11610095578063fb0e722b11610064578063fb0e722b14610436578063fb31ff2a14610456578063fc2a88c314610469578063fdd4fb9f1461048d57600080fd5b8063d554a14c146103dd578063de2a26e9146103f0578063e97c37c314610403578063f2fde38b1461041657600080fd5b8063bbf5f9b8116100d1578063bbf5f9b814610377578063c07fd56e1461038a578063c0c1c9cc146103aa578063c31614a4146103bd57600080fd5b8063978cb13d1461032f578063aa9019b014610342578063abcc11d81461035557600080fd5b80635aefefb91161016f578063715018a61161013e578063715018a6146102b057806374904e0b146102c557806378e6811d146102d85780638da5cb5b146102f857600080fd5b80635aefefb9146102645780635dde58f4146102775780635e1597781461028a5780635e9361d11461029d57600080fd5b80634acd1b9d116101ab5780634acd1b9d146102185780634e1396db1461022b5780634f09aa031461023e57806356a15e8e1461025157600080fd5b806302fe0886146101dd57806338a5ff37146101f25780633b237ce81461020557600080fd5b366101d857005b600080fd5b6101f06101eb36600461157c565b6104a0565b005b6101f061020036600461157c565b6104dd565b6101f06102133660046115ed565b610512565b6101f0610226366004611606565b61053b565b6101f061023936600461157c565b610582565b6101f061024c3660046116b5565b6105b7565b6101f061025f36600461157c565b6105e2565b6101f061027236600461157c565b610617565b6101f061028536600461157c565b61064c565b6101f061029836600461157c565b610681565b6101f06102ab3660046116df565b6106b6565b3480156102bc57600080fd5b506101f06106e3565b6101f06102d336600461157c565b6106f7565b3480156102e457600080fd5b506101f06102f336600461174d565b61072c565b34801561030457600080fd5b506001546001600160a01b03165b6040516001600160a01b0390911681526020015b60405180910390f35b6101f061033d36600461157c565b610789565b6101f061035036600461157c565b6107be565b34801561036157600080fd5b5061036a6107f3565b60405161032691906117c9565b6101f061038536600461157c565b610881565b34801561039657600080fd5b506101f06103a53660046118c7565b6108b6565b6101f06103b836600461157c565b6108f8565b3480156103c957600080fd5b506101f06103d83660046115ed565b61092d565b6101f06103eb36600461157c565b610a10565b6101f06103fe36600461157c565b610a45565b6101f061041136600461157c565b610a7a565b34801561042257600080fd5b506101f0610431366004611903565b610aaf565b34801561044257600080fd5b50600054610312906001600160a01b031681565b6101f061046436600461157c565b610aed565b34801561047557600080fd5b5061047f60055481565b604051908152602001610326565b6101f061049b3660046116df565b610b22565b6104a8610b4f565b6104d56104b48461191e565b6104bd8461191e565b3363603feab760e11b6330c5852960e21b3487610b6b565b600555505050565b6104e5610b4f565b6104d56104f18461191e565b6104fa8461191e565b3363603feab760e11b6330c5852960e21b3487610b90565b61051a610b4f565b6105353363603feab760e11b6330c5852960e21b3485610ba9565b60055550565b610543610b4f565b61057961054f8561191e565b6105588561191e565b6105618561191e565b3363603feab760e11b6330c5852960e21b3488610bca565b60055550505050565b61058a610b4f565b6104d56105968461191e565b61059f8461191e565b3363603feab760e11b6330c5852960e21b3487610be8565b6105bf610b4f565b6105db823363603feab760e11b6330c5852960e21b3486610c01565b6005555050565b6105ea610b4f565b6104d56105f68461191e565b6105ff8461191e565b3363603feab760e11b6330c5852960e21b3487610c1b565b61061f610b4f565b6104d561062b8461191e565b6106348461191e565b3363603feab760e11b6330c5852960e21b3487610c34565b610654610b4f565b6104d56106608461191e565b6106698461191e565b3363603feab760e11b6330c5852960e21b3487610c4d565b610689610b4f565b6104d56106958461191e565b61069e8461191e565b3363603feab760e11b6330c5852960e21b3487610c66565b6106be610b4f565b6104d56106ca8461191e565b833363603feab760e11b6330c5852960e21b3487610c7f565b6106eb610c98565b6106f56000610cc5565b565b6106ff610b4f565b6104d561070b8461191e565b6107148461191e565b3363603feab760e11b6330c5852960e21b3487610d17565b610734610c98565b6001600160a01b0383161561075f57600080546001600160a01b0319166001600160a01b0385161790555b600280546001600160a01b0319166001600160a01b0384161790556003819055505050565b505050565b610791610b4f565b6104d561079d8461191e565b6107a68461191e565b3363603feab760e11b6330c5852960e21b3487610d30565b6107c6610b4f565b6104d56107d28461191e565b6107db8461191e565b3363603feab760e11b6330c5852960e21b3487610d49565b600480546108009061196d565b80601f016020809104026020016040519081016040528092919081815260200182805461082c9061196d565b80156108795780601f1061084e57610100808354040283529160200191610879565b820191906000526020600020905b81548152906001019060200180831161085c57829003601f168201915b505050505081565b610889610b4f565b6104d56108958461191e565b61089e8461191e565b3363603feab760e11b6330c5852960e21b3487610d62565b6000546001600160a01b031633146108e85760405163625bb43760e11b81523360048201526024015b60405180910390fd5b60046108f482826119ef565b5050565b610900610b4f565b6104d561090c8461191e565b6109158461191e565b3363603feab760e11b6330c5852960e21b3487610d7b565b6000546001600160a01b0316331461095a5760405163625bb43760e11b81523360048201526024016108df565b60008054604051633d5c08e760e01b81526004810184905282916001600160a01b031690633d5c08e790602401600060405180830381865afa1580156109a4573d6000803e3d6000fd5b505050506040513d6000823e601f3d908101601f191682016040526109cc9190810190611aad565b915091507f619a7489bf8601fb5b4d4baa3ac966cc83cbb97ea0646e8cec620a75fdde73c4838383604051610a0393929190611b2f565b60405180910390a1505050565b610a18610b4f565b6104d5610a248461191e565b610a2d8461191e565b3363603feab760e11b6330c5852960e21b3487610d94565b610a4d610b4f565b6104d5610a598461191e565b610a628461191e565b3363603feab760e11b6330c5852960e21b3487610dad565b610a82610b4f565b6104d5610a8e8461191e565b610a978461191e565b3363603feab760e11b6330c5852960e21b3487610dc6565b610ab7610c98565b6001600160a01b038116610ae157604051631e4fbdf760e01b8152600060048201526024016108df565b610aea81610cc5565b50565b610af5610b4f565b6104d5610b018461191e565b610b0a8461191e565b3363603feab760e11b6330c5852960e21b3487610ddf565b610b2a610b4f565b6104d5610b368461191e565b833363603feab760e11b6330c5852960e21b3487610df8565b604080516020810190915260008152600490610aea90826119ef565b6000610b8463210d1ab360e01b89898989898989610e11565b98975050505050505050565b6000610b84632043004d60e21b89898989898989610e11565b6000610bc0610bb787610e22565b86868686610e54565b9695505050505050565b6000610bdb610bb78a8a8a8a610e76565b9998505050505050505050565b6000610b84632e254fd560e01b89898989898989610e11565b6000610c10610bb78888610eb6565b979650505050505050565b6000610b846347c6bb1d60e11b89898989898989610e11565b6000610b846364ef601f60e01b89898989898989610e11565b6000610b8463ce71837560e01b89898989898989610e11565b6000610b84636e87618160e11b89898989898989610e11565b6000610b84637448db2760e01b89898989898989610eeb565b6001546001600160a01b031633146106f55760405163118cdaa760e01b81523360048201526024016108df565b600180546001600160a01b038381166001600160a01b0319831681179093556040519116919082907f8be0079c531659141344cd1fd0a4f28419497f9722a3daafe3b4186f6b6457e090600090a35050565b6000610b846364f05d7160e11b89898989898989610e11565b6000610b84636f1c1ee160e11b89898989898989610e11565b6000610b84633a12860960e11b89898989898989610e11565b6000610b84633de6162360e21b89898989898989610e11565b6000610b8463b7be464160e01b89898989898989610e11565b6000610b84638c8e10c360e01b89898989898989610e11565b6000610b84639523d4af60e01b89898989898989610e11565b6000610b84632b2cee4f60e11b89898989898989610e11565b6000610b8463473f00f960e01b89898989898989610e11565b6000610b84636e7801ff60e11b89898989898989610eeb565b6000610bdb610bb78a8a8a8a610efc565b610e2a611504565b610e4e610e4983610e43630249b66560e31b6001610f1a565b90611050565b611088565b92915050565b600354600254600091610bc091859185916001600160a01b03168a8a8a6111c4565b610e7e611504565b610ead610e4983610e4386610ea789818c610ea16327a1699f60e21b6004610f1a565b90611338565b9061136b565b95945050505050565b610ebe611504565b610ee4610e4983610e4360ff8716610ede631be52b4560e31b6002610f1a565b9061139e565b9392505050565b6000610bdb610bb78a8a8a8a6113d3565b610f04611504565b610ead610e4983610e4386610ea789610ea78c60035b610f22611536565b60408051610100810182526001600160e01b03198516608082019081528251600081526020810190935260a082019290925290819060c08201856001600160401b03811115610f7357610f736117dc565b604051908082528060200260200182016040528015610f9c578160200160208202803683370190505b508152602001856001600160401b03811115610fba57610fba6117dc565b604051908082528060200260200182016040528015610fe3578160200160208202803683370190505b5090528152602001836001600160401b03811115611003576110036117dc565b60405190808252806020026020018201604052801561103657816020015b60608152602001906001900390816110215790505b508152602001600081526020016000815250905092915050565b611058611536565b604080516001600160a01b0384166020820152610ee49185910160405160208183030381529060405260016113f8565b611090611504565b600082604001516001600160401b038111156110ae576110ae6117dc565b6040519080825280601f01601f1916602001820160405280156110d8576020820181803683370190505b5090506000805b84606001518110156111b75760008560200151828151811061110357611103611b4e565b60200260200101519050805160001b866000015160600151838151811061112c5761112c611b4e565b60200260200101818152505060005b815181101561119f5781818151811061115657611156611b4e565b01602001516001600160f81b031916856111708387611b64565b8151811061118057611180611b4e565b60200101906001600160f81b031916908160001a90535060010161113b565b5080516111ac9084611b64565b9250506001016110df565b5050825160200152505190565b600060018710156112175760405162461bcd60e51b815260206004820152601860248201527f506f644c69623a2063616c6c6261636b20666565206d696e000000000000000060448201526064016108df565b878711156112675760405162461bcd60e51b815260206004820152601e60248201527f506f644c69623a2063616c6c6261636b206578636565647320746f74616c000060448201526064016108df565b874710156112ab5760405162461bcd60e51b8152602060048201526011602482015270506f644c69623a20696e626f782066656560781b60448201526064016108df565b60008054906101000a90046001600160a01b03166001600160a01b031663ba5814658988888888888e6040518863ffffffff1660e01b81526004016112f596959493929190611bc1565b60206040518083038185885af1158015611313573d6000803e3d6000fd5b50505050506040513d601f19601f82011682018060405250810190610b849190611cb0565b611340611536565b610ee483836040516020016113559190611ce8565b604051602081830303815290604052600a6113f8565b611373611536565b610ee483836040516020016113889190611ce8565b604051602081830303815290604052600e6113f8565b6113a6611536565b610ee483836040516020016113bd91815260200190565b60405160208183030381529060405260006113f8565b6113db611504565b610ead610e4983610e438660ff16610ede89610ea78c6003610f1a565b611400611536565b835160400151516060850151106114595760405162461bcd60e51b815260206004820152601a60248201527f4d7063416269436f6465633a20746f6f206d616e79206172677300000000000060448201526064016108df565b81601181111561146b5761146b611cfb565b60ff1660c01b84600001516040015185606001518151811061148f5761148f611b4e565b6001600160c01b0319909216602092830291909101820152840151606085015181518592919081106114c3576114c3611b4e565b60200260200101819052508251846040018181516114e19190611b64565b905250606084018051600191906114f9908390611b64565b905250929392505050565b604051806080016040528060006001600160e01b03191681526020016060815260200160608152602001606081525090565b6040518060800160405280611549611504565b81526020016060815260200160008152602001600081525090565b60006040828403121561157657600080fd5b50919050565b60008060006060848603121561159157600080fd5b83356001600160401b038111156115a757600080fd5b6115b386828701611564565b93505060208401356001600160401b038111156115cf57600080fd5b6115db86828701611564565b93969395505050506040919091013590565b6000602082840312156115ff57600080fd5b5035919050565b6000806000806080858703121561161c57600080fd5b84356001600160401b0381111561163257600080fd5b61163e87828801611564565b94505060208501356001600160401b0381111561165a57600080fd5b61166687828801611564565b93505060408501356001600160401b0381111561168257600080fd5b61168e87828801611564565b949793965093946060013593505050565b803560ff811681146116b057600080fd5b919050565b600080604083850312156116c857600080fd5b6116d18361169f565b946020939093013593505050565b6000806000606084860312156116f457600080fd5b83356001600160401b0381111561170a57600080fd5b61171686828701611564565b9350506117256020850161169f565b929592945050506040919091013590565b80356001600160a01b03811681146116b057600080fd5b60008060006060848603121561176257600080fd5b61176b84611736565b925061172560208501611736565b60005b8381101561179457818101518382015260200161177c565b50506000910152565b600081518084526117b5816020860160208601611779565b601f01601f19169290920160200192915050565b602081526000610ee4602083018461179d565b634e487b7160e01b600052604160045260246000fd5b604080519081016001600160401b0381118282101715611814576118146117dc565b60405290565b604051601f8201601f191681016001600160401b0381118282101715611842576118426117dc565b604052919050565b60006001600160401b03821115611863576118636117dc565b50601f01601f191660200190565b600082601f83011261188257600080fd5b81356118956118908261184a565b61181a565b8181528460208386010111156118aa57600080fd5b816020850160208301376000918101602001919091529392505050565b6000602082840312156118d957600080fd5b81356001600160401b038111156118ef57600080fd5b6118fb84828501611871565b949350505050565b60006020828403121561191557600080fd5b610ee482611736565b60006040823603121561193057600080fd5b6119386117f2565b8235815260208301356001600160401b0381111561195557600080fd5b61196136828601611871565b60208301525092915050565b600181811c9082168061198157607f821691505b60208210810361157657634e487b7160e01b600052602260045260246000fd5b601f82111561078457806000526020600020601f840160051c810160208510156119c85750805b601f840160051c820191505b818110156119e857600081556001016119d4565b5050505050565b81516001600160401b03811115611a0857611a086117dc565b611a1c81611a16845461196d565b846119a1565b6020601f821160018114611a505760008315611a385750848201515b600019600385901b1c1916600184901b1784556119e8565b600084815260208120601f198516915b82811015611a805787850151825560209485019460019092019101611a60565b5084821015611a9e5786840151600019600387901b60f8161c191681555b50505050600190811b01905550565b60008060408385031215611ac057600080fd5b8251915060208301516001600160401b03811115611add57600080fd5b8301601f81018513611aee57600080fd5b8051611afc6118908261184a565b818152866020838501011115611b1157600080fd5b611b22826020830160208601611779565b8093505050509250929050565b838152826020820152606060408201526000610ead606083018461179d565b634e487b7160e01b600052603260045260246000fd5b80820180821115610e4e57634e487b7160e01b600052601160045260246000fd5b600081518084526020840193506020830160005b82811015611bb7578151865260209586019590910190600101611b99565b5093949350505050565b86815260018060a01b038616602082015260c0604082015263ffffffff60e01b85511660c082015260006020860151608060e0840152611c0561014084018261179d565b604088015184820360bf190161010086015280518083526020918201935060009291909101905b80831015611c585783516001600160c01b03191682526020938401936001939093019290910190611c2c565b50606089015185820360bf19016101208701529250611c778184611b85565b9350505050611c9260608301866001600160e01b0319169052565b6001600160e01b031993909316608082015260a00152949350505050565b600060208284031215611cc257600080fd5b5051919050565b8051825260006020820151604060208501526118fb604085018261179d565b602081526000610ee46020830184611cc9565b634e487b7160e01b600052602160045260246000fdfea2646970667358221220a1b3fa2636c59e965828b6e4f2f5476b08520739eeaeda1561c58f5da8a7663364736f6c634300081a0033",
  "linkReferences": {},
  "deployedLinkReferences": {},
  "immutableReferences": {},
  "inputSourceName": "project/contracts/examples/pod/PodTest64.sol",
  "buildInfoId": "solc-0_8_26-fe1a4e4a505966a69217682120b0629c10751bbb"
}