{
  "_format": "hh3-artifact-1",
  "contractName": "PodAdder128",
  "sourceName": "contracts/examples/it128/PodAdder128.sol",
  "abi": [
    {
      "inputs": [
        {
          "internalType": "address",
          "name": "_inbox",
          "type": "address"
        }
      ],
      "stateMutability": "nonpayable",
      "type": "constructor"
    },
    {
      "inputs": [
        {
          "internalType": "address",
          "name": "caller",
          "type": "address"
        }
      ],
      "name": "OnlyInbox",
      "type": "error"
    },
    {
      "inputs": [
        {
          "internalType": "address",
          "name": "owner",
          "type": "address"
        }
      ],
      "name": "OwnableInvalidOwner",
      "type": "error"
    },
    {
      "inputs": [
        {
          "internalType": "address",
          "name": "account",
          "type": "address"
        }
      ],
      "name": "OwnableUnauthorizedAccount",
      "type": "error"
    },
    {
      "anonymous": false,
      "inputs": [
        {
          "indexed": false,
          "internalType": "bytes32",
          "name": "requestId",
          "type": "bytes32"
        }
      ],
      "name": "AddRequest",
      "type": "event"
    },
    {
      "anonymous": false,
      "inputs": [
        {
          "indexed": false,
          "internalType": "bytes32",
          "name": "requestId",
          "type": "bytes32"
        },
        {
          "indexed": false,
          "internalType": "uint256",
          "name": "code",
          "type": "uint256"
        },
        {
          "indexed": false,
          "internalType": "string",
          "name": "message",
          "type": "string"
        }
      ],
      "name": "ErrorRemoteCall",
      "type": "event"
    },
    {
      "anonymous": false,
      "inputs": [
        {
          "indexed": true,
          "internalType": "address",
          "name": "previousOwner",
          "type": "address"
        },
        {
          "indexed": true,
          "internalType": "address",
          "name": "newOwner",
          "type": "address"
        }
      ],
      "name": "OwnershipTransferred",
      "type": "event"
    },
    {
      "inputs": [
        {
          "components": [
            {
              "components": [
                {
                  "internalType": "ctUint64",
                  "name": "high",
                  "type": "uint256"
                },
                {
                  "internalType": "ctUint64",
                  "name": "low",
                  "type": "uint256"
                }
              ],
              "internalType": "struct ctUint128",
              "name": "ciphertext",
              "type": "tuple"
            },
            {
              "internalType": "bytes[2]",
              "name": "signature",
              "type": "bytes[2]"
            }
          ],
          "internalType": "struct itUint128",
          "name": "a",
          "type": "tuple"
        },
        {
          "components": [
            {
              "components": [
                {
                  "internalType": "ctUint64",
                  "name": "high",
                  "type": "uint256"
                },
                {
                  "internalType": "ctUint64",
                  "name": "low",
                  "type": "uint256"
                }
              ],
              "internalType": "struct ctUint128",
              "name": "ciphertext",
              "type": "tuple"
            },
            {
              "internalType": "bytes[2]",
              "name": "signature",
              "type": "bytes[2]"
            }
          ],
          "internalType": "struct itUint128",
          "name": "b",
          "type": "tuple"
        },
        {
          "internalType": "uint256",
          "name": "callbackFeeLocalWei",
          "type": "uint256"
        }
      ],
      "name": "add",
      "outputs": [],
      "stateMutability": "payable",
      "type": "function"
    },
    {
      "inputs": [
        {
          "internalType": "address",
          "name": "inbox_",
          "type": "address"
        },
        {
          "internalType": "address",
          "name": "mpcExecutor_",
          "type": "address"
        },
        {
          "internalType": "uint256",
          "name": "cotiChainId_",
          "type": "uint256"
        }
      ],
      "name": "configure",
      "outputs": [],
      "stateMutability": "nonpayable",
      "type": "function"
    },
    {
      "inputs": [],
      "name": "inbox",
      "outputs": [
        {
          "internalType": "contract IInbox",
          "name": "",
          "type": "address"
        }
      ],
      "stateMutability": "view",
      "type": "function"
    },
    {
      "inputs": [
        {
          "internalType": "bytes32",
          "name": "requestId",
          "type": "bytes32"
        }
      ],
      "name": "onDefaultMpcError",
      "outputs": [],
      "stateMutability": "nonpayable",
      "type": "function"
    },
    {
      "inputs": [],
      "name": "owner",
      "outputs": [
        {
          "internalType": "address",
          "name": "",
          "type": "address"
        }
      ],
      "stateMutability": "view",
      "type": "function"
    },
    {
      "inputs": [
        {
          "internalType": "bytes",
          "name": "data",
          "type": "bytes"
        }
      ],
      "name": "receiveC",
      "outputs": [],
      "stateMutability": "nonpayable",
      "type": "function"
    },
    {
      "inputs": [],
      "name": "renounceOwnership",
      "outputs": [],
      "stateMutability": "nonpayable",
      "type": "function"
    },
    {
      "inputs": [],
      "name": "resultCiphertext",
      "outputs": [
        {
          "components": [
            {
              "internalType": "ctUint64",
              "name": "high",
              "type": "uint256"
            },
            {
              "internalType": "ctUint64",
              "name": "low",
              "type": "uint256"
            }
          ],
          "internalType": "struct ctUint128",
          "name": "",
          "type": "tuple"
        }
      ],
      "stateMutability": "view",
      "type": "function"
    },
    {
      "inputs": [
        {
          "internalType": "address",
          "name": "newOwner",
          "type": "address"
        }
      ],
      "name": "transferOwnership",
      "outputs": [],
      "stateMutability": "nonpayable",
      "type": "function"
    },
    {
      "stateMutability": "payable",
      "type": "receive"
    }
  ],
  "bytecode": "0x6080604052600280546001600160a01b031916905562282b3460035534801561002757600080fd5b506040516112e13803806112e183398101604081905261004691610103565b3380808061006e57604051631e4fbdf760e01b81526000600482015260240160405180910390fd5b6100778161008f565b505050610089816100e160201b60201c565b50610133565b600180546001600160a01b038381166001600160a01b0319831681179093556040519116919082907f8be0079c531659141344cd1fd0a4f28419497f9722a3daafe3b4186f6b6457e090600090a35050565b600080546001600160a01b0319166001600160a01b0392909216919091179055565b60006020828403121561011557600080fd5b81516001600160a01b038116811461012c57600080fd5b9392505050565b61119f806101426000396000f3fe60806040526004361061008a5760003560e01c8063b06205a011610059578063b06205a014610117578063c31614a414610159578063d5cca59814610179578063f2fde38b14610199578063fb0e722b146101b957600080fd5b8063715018a61461009657806378e6811d146100ad5780638363f20c146100cd5780638da5cb5b146100e057600080fd5b3661009157005b600080fd5b3480156100a257600080fd5b506100ab6101d9565b005b3480156100b957600080fd5b506100ab6100c8366004610b3e565b6101ed565b6100ab6100db366004610b93565b610245565b3480156100ec57600080fd5b506001546001600160a01b03165b6040516001600160a01b0390911681526020015b60405180910390f35b34801561012357600080fd5b506040805180820182526000808252602091820152815180830190925260045482526005549082015260405161010e9190610c04565b34801561016557600080fd5b506100ab610174366004610c1b565b6102b5565b34801561018557600080fd5b506100ab610194366004610d1f565b61039d565b3480156101a557600080fd5b506100ab6101b4366004610d5b565b6103ed565b3480156101c557600080fd5b506000546100fa906001600160a01b031681565b6101e161042b565b6101eb6000610458565b565b6101f561042b565b6001600160a01b0383161561022057600080546001600160a01b0319166001600160a01b0385161790555b600280546001600160a01b0319166001600160a01b0384161790556003819055505050565b600061027461025385610d76565b61025c85610d76565b33631ab994b360e31b6330c5852960e21b34886104aa565b90507f7edcca57471e18866654b0452eef79fa957b8d08c36918c6cfc48bc253b26a92816040516102a791815260200190565b60405180910390a150505050565b6000546001600160a01b031633146102e75760405163625bb43760e11b81523360048201526024015b60405180910390fd5b60008054604051633d5c08e760e01b81526004810184905282916001600160a01b031690633d5c08e790602401600060405180830381865afa158015610331573d6000803e3d6000fd5b505050506040513d6000823e601f3d908101601f191682016040526103599190810190610e6d565b915091507f619a7489bf8601fb5b4d4baa3ac966cc83cbb97ea0646e8cec620a75fdde73c483838360405161039093929190610f1c565b60405180910390a1505050565b6000546001600160a01b031633146103ca5760405163625bb43760e11b81523360048201526024016102de565b808060200190518101906103de9190610f3b565b80516004556020015160055550565b6103f561042b565b6001600160a01b03811661041f57604051631e4fbdf760e01b8152600060048201526024016102de565b61042881610458565b50565b6001546001600160a01b031633146101eb5760405163118cdaa760e01b81523360048201526024016102de565b600180546001600160a01b038381166001600160a01b0319831681179093556040519116919082907f8be0079c531659141344cd1fd0a4f28419497f9722a3daafe3b4186f6b6457e090600090a35050565b60006104c2629bf77560e21b898989898989896104ce565b98975050505050505050565b60006104e86104df8a8a8a8a6104f5565b86868686610531565b9998505050505050505050565b6104fd610ac2565b6105286105238361051d86610517896105178c600361055d565b90610694565b906106ce565b610706565b95945050505050565b60035460025460009161055391859185916001600160a01b03168a8a8a610842565b9695505050505050565b610565610af4565b60408051610100810182526001600160e01b03198516608082019081528251600081526020810190935260a082019290925290819060c08201856001600160401b038111156105b6576105b6610c34565b6040519080825280602002602001820160405280156105df578160200160208202803683370190505b508152602001856001600160401b038111156105fd576105fd610c34565b604051908082528060200260200182016040528015610626578160200160208202803683370190505b5090528152602001836001600160401b0381111561064657610646610c34565b60405190808252806020026020018201604052801561067957816020015b60608152602001906001900390816106645790505b50815260200160008152602001600081525090505b92915050565b61069c610af4565b6106c783836040516020016106b19190610f6e565b604051602081830303815290604052600f6109b6565b9392505050565b6106d6610af4565b604080516001600160a01b03841660208201526106c79185910160405160208183030381529060405260016109b6565b61070e610ac2565b600082604001516001600160401b0381111561072c5761072c610c34565b6040519080825280601f01601f191660200182016040528015610756576020820181803683370190505b5090506000805b84606001518110156108355760008560200151828151811061078157610781610fd8565b60200260200101519050805160001b86600001516060015183815181106107aa576107aa610fd8565b60200260200101818152505060005b815181101561081d578181815181106107d4576107d4610fd8565b01602001516001600160f81b031916856107ee8387610fee565b815181106107fe576107fe610fd8565b60200101906001600160f81b031916908160001a9053506001016107b9565b50805161082a9084610fee565b92505060010161075d565b5050825160200152505190565b600060018710156108955760405162461bcd60e51b815260206004820152601860248201527f506f644c69623a2063616c6c6261636b20666565206d696e000000000000000060448201526064016102de565b878711156108e55760405162461bcd60e51b815260206004820152601e60248201527f506f644c69623a2063616c6c6261636b206578636565647320746f74616c000060448201526064016102de565b874710156109295760405162461bcd60e51b8152602060048201526011602482015270506f644c69623a20696e626f782066656560781b60448201526064016102de565b60008054906101000a90046001600160a01b03166001600160a01b031663ba5814658988888888888e6040518863ffffffff1660e01b81526004016109739695949392919061104b565b60206040518083038185885af1158015610991573d6000803e3d6000fd5b50505050506040513d601f19601f820116820180604052508101906104c2919061113a565b6109be610af4565b83516040015151606085015110610a175760405162461bcd60e51b815260206004820152601a60248201527f4d7063416269436f6465633a20746f6f206d616e79206172677300000000000060448201526064016102de565b816011811115610a2957610a29611153565b60ff1660c01b846000015160400151856060015181518110610a4d57610a4d610fd8565b6001600160c01b031990921660209283029190910182015284015160608501518151859291908110610a8157610a81610fd8565b6020026020010181905250825184604001818151610a9f9190610fee565b90525060608401805160019190610ab7908390610fee565b905250929392505050565b604051806080016040528060006001600160e01b03191681526020016060815260200160608152602001606081525090565b6040518060800160405280610b07610ac2565b81526020016060815260200160008152602001600081525090565b80356001600160a01b0381168114610b3957600080fd5b919050565b600080600060608486031215610b5357600080fd5b610b5c84610b22565b9250610b6a60208501610b22565b929592945050506040919091013590565b600060608284031215610b8d57600080fd5b50919050565b600080600060608486031215610ba857600080fd5b83356001600160401b03811115610bbe57600080fd5b610bca86828701610b7b565b93505060208401356001600160401b03811115610be657600080fd5b610bf286828701610b7b565b93969395505050506040919091013590565b81518152602080830151908201526040810161068e565b600060208284031215610c2d57600080fd5b5035919050565b634e487b7160e01b600052604160045260246000fd5b604080519081016001600160401b0381118282101715610c6c57610c6c610c34565b60405290565b604051601f8201601f191681016001600160401b0381118282101715610c9a57610c9a610c34565b604052919050565b60006001600160401b03821115610cbb57610cbb610c34565b50601f01601f191660200190565b600082601f830112610cda57600080fd5b8135610ced610ce882610ca2565b610c72565b818152846020838601011115610d0257600080fd5b816020850160208301376000918101602001919091529392505050565b600060208284031215610d3157600080fd5b81356001600160401b03811115610d4757600080fd5b610d5384828501610cc9565b949350505050565b600060208284031215610d6d57600080fd5b6106c782610b22565b60008136036060811215610d8957600080fd5b610d91610c4a565b6040821215610d9f57600080fd5b610da7610c4a565b84358152602080860135908201528152604084013591506001600160401b03821115610dd257600080fd5b9083019036601f830112610de557600080fd5b610ded610c4a565b806040840136811115610dff57600080fd5b845b81811015610e3a5780356001600160401b03811115610e1f57600080fd5b610e2b36828901610cc9565b85525060209384019301610e01565b50506020830152509392505050565b60005b83811015610e64578181015183820152602001610e4c565b50506000910152565b60008060408385031215610e8057600080fd5b825160208401519092506001600160401b03811115610e9e57600080fd5b8301601f81018513610eaf57600080fd5b8051610ebd610ce882610ca2565b818152866020838501011115610ed257600080fd5b610ee3826020830160208601610e49565b8093505050509250929050565b60008151808452610f08816020860160208601610e49565b601f01601f19169290920160200192915050565b8381528260208201526060604082015260006105286060830184610ef0565b60006040828403128015610f4e57600080fd5b50610f57610c4a565b825181526020928301519281019290925250919050565b6020808252825180518383015201516040820152600060808201602084015160608481015260c084019160005b6002811015610fcd57607f19868503018252610fb8848451610ef0565b93506020928301929190910190600101610f9b565b509195945050505050565b634e487b7160e01b600052603260045260246000fd5b8082018082111561068e57634e487b7160e01b600052601160045260246000fd5b600081518084526020840193506020830160005b82811015611041578151865260209586019590910190600101611023565b5093949350505050565b86815260018060a01b038616602082015260c0604082015263ffffffff60e01b85511660c082015260006020860151608060e084015261108f610140840182610ef0565b604088015184820360bf190161010086015280518083526020918201935060009291909101905b808310156110e25783516001600160c01b031916825260209384019360019390930192909101906110b6565b50606089015185820360bf19016101208701529250611101818461100f565b935050505061111c60608301866001600160e01b0319169052565b6001600160e01b031993909316608082015260a00152949350505050565b60006020828403121561114c57600080fd5b5051919050565b634e487b7160e01b600052602160045260246000fdfea2646970667358221220725a4a4ec17324b5464c1e1e8de126e01273100e2dcb52695e9b248ba99761ff64736f6c634300081a0033",
  "linkReferences": {},
  "deployedLinkReferences": {},
  "immutableReferences": {},
  "inputSourceName": "project/contracts/examples/it128/PodAdder128.sol",
  "buildInfoId": "solc-0_8_26-fe1a4e4a505966a69217682120b0629c10751bbb"
}